:02000002D0002C
:1040000000400D0084610D00000006000D00050158
:084010000401DE0500000000C0
:04401800185C0D0023
:10401C0009480A49884208B505D0094A824202D0AB
:10402C00121A01F093FD0748074A0021121A01F0F9
:10403C0098FD014808BD00BF1CE30320B4600D00CF
:10404C00C4E30320C4E30320F0E7032070B501F0C0
:10405C0039FA074C074BE41AA40800251E46A54262
:10406C0004D056F8253098470135F8E770BD00BFED
:10407C00B0600D0074600D0000F098B808B500F049
:10408C004EF8BDE8084001F0DFB900F06DBA00F061
:10409C0073BA00F071BA0078B0FA80F0400970473A
:1040AC00012303707047000030B585B00D4604A99C
:1040BC00002241F8102D00F0AFF9D8B9009CE3882C
:1040CC00012B04D001460C4A0A2000F09DF921690D
:1040DC0019B9094A0A2000F097F9002301930C231F
:1040EC00ADF80430042303930295236901AA01213E
:1040FC002046984705B030BDE5420D0008B52DEDC2
:10410C00028BB0EE408A28B10138FFF7F7FF28EE9A
:10411C00000A01E0B7EE000ABDEC028B08BD704747
:10412C0030B51F4D0FCD8DB005AC0FC495E8070011
:10413C0084E8070004A90320FFF7B6FF88B906201E
:10414C00B0EE000AFFF7DAFFBDF8103030EE000ACF
:10415C0007EE903A30EE000AF8EE677A87EE807A36
:10416C0001E0BFEE007A17EE100A01F08DFC044658
:10417C000D46072004A9FFF797FF0028A8BF049855
:10418C00084A0CAB03EB8000402150F81C3C029316
:10419C00CDE90045044800F0F7F90DB030BD00BF83
:1041AC002C5C0D00485C0D001CE3032010B5202492
:1041BC008AB02246002102A801F0D3FC002102A8FB
:1041CC008DF80D4000F05EF9FFF7AAFF1D4B1E4A5B
:1041DC001B788DF800301D493C2302A800F0E6FB4B
:1041EC00039C7CB16368013B63605BB92368204628
:1041FC009B689847A368013BA3601BB923682046C2
:10420C00DB68984720242246002102A801F0A9FC73
:10421C0040F22623ADF8103041F2D833ADF80E3011
:10422C0041F272024FF40073002102A88DF80D4088
:10423C00ADF81230ADF81420029300F023F90AB057
:10424C0010BD00BFC8E303201CE30320685C0D0015
:10425C00024B01221A7000F04FB800BFC8E30320D4
:10426C0008B500F049F8024B024A1A6008BD00BFBD
:10427C00CCE303209D5D0D0008B5024B1B689B68C9
:10428C00019308BD4802030008B5024B1B681B696B
:10429C00019308BD4802030008B5024B1B685B691B
:1042AC00019308BD4802030008B5024B1B685B6C08
:1042BC00019308BD4802030008B5024B1B689B6CB8
:1042CC00019308BD4802030008B5024B1B685B68EC
:1042DC00019308BD1802030008B5024B1B68DB688C
:1042EC00019308BD1802030008B5024B1B685B69FB
:1042FC00019308BD1802030008B5024B1B681B682C
:10430C00019308BD2C02030008B5024B1B685B69C6
:10431C00019308BD6402030008B5024B1B689B683F
:10432C00019308BD6802030008B5024B1B68DB68EB
:10433C00019308BD6802030008B5024B1B681B689B
:10434C00019308BD3C02030008B5024B1B68DB68F7
:10435C00019308BD3C02030008B5024B1B681B69A6
:10436C00019308BD3C02030008B5024B1B685B6956
:10437C00019308BD3C02030008B5024B1B689B6906
:10438C00019308BD3C02030008B5024B1B68DB69B6
:10439C00019308BD3C02030008B5024B1B689B6AE5
:1043AC00019308BD3C02030008B5024B1B681B6857
:1043BC00019308BD4C02030008B5024B1B681B6936
:1043CC00019308BD4C02030008B5024B1B685B69E6
:1043DC00019308BD4C02030008B5024B1B689B6996
:1043EC00019308BD4C02030008B5024B1B68DB6946
:1043FC00019308BD4C02030008B5024B1B681B6AF5
:10440C00019308BD4C02030008B5024B1B685B6BA3
:10441C00019308BD6002030008B5034B1B68D3F879
:10442C009830019308BD00006002030008B5024BF0
:10443C001B685B68019308BD2002030008B5024BA2
:10444C001B68DB6C019308BD2002030008B5024B0E
:10445C001B685B6D019308BD2002030008B5034B7C
:10446C001B68D3F88830019308BD000020020300BC
:10447C0008B5034B1B68D3F89430019308BD0000BA
:10448C002002030008B5034B1B68D3F8A830019336
:10449C0008BD00002002030008B5024B1B685B69D5
:1044AC00019308BD4402030008B5024B1B681B6A4C
:1044BC00019308BD4402030008B5024B1B68DB6B7B
:1044CC00019308BD4402030008B5024B1B685B68EE
:1044DC00019308BD4002030008B5024B1B689B68A2
:1044EC00019308BD4002030008B5024B1B68DB6852
:1044FC00019308BD4002030008B5024B1B681B6901
:10450C00019308BD4002030008B5024B1B685B69B0
:10451C00019308BD4002030008B5024B1B689B6960
:10452C00019308BD4002030008B5024B1B68DB6910
:10453C00019308BD4002030008B5024B1B681B6ABF
:10454C00019308BD4002030008B5024B1B681B6BAE
:10455C00019308BD4002030008B5024B1B685B6B5E
:10456C00019308BD4002030008B5024B1B681B6891
:10457C00019308BD1C02030008B5024B1B685B6865
:10458C00019308BD1C02030008B5024B1B68DB69D4
:10459C00019308BD1C02030008B5024B1B68DB6AC3
:1045AC00019308BD1C02030008B5024B1B681B6B72
:1045BC00019308BD1C02030010B5836804460BB9B7
:1045CC0000F0B3FFC3689847A3681BB103222146D0
:1045DC002046984720461021BDE8104000F0A3BFAC
:1045EC0010B50446006808B1FFF766FE204610BD02
:1045FC0010B5036804469B689847A368013BA36009
:10460C002BB923682046DB68BDE81040184710BD65
:10461C000B68036013B15A6801325A60704710B5C9
:10462C000446006828B14368013B43600BB9FFF7AF
:10463C00DFFF204610BD000010B5064C00232046BD
:10464C002360FFF731FE2046034A0449BDE81040C1
:10465C0000F064BFD0E30320C4E30320ED450D005C
:10466C00002211464068FFF747BF00221146406800
:10467C00FFF762BF002211464068FFF76DBF0022B2
:10468C004068FFF761BF002281F001014068FFF72D
:10469C004BBF00231A4619464068FFF73DBF002365
:1046AC001A4619464068FFF72FBF00221146406892
:1046BC00FFF712BF002202214068FFF715BF00234D
:1046CC001A464068FFF700BF38B5084C28252A4623
:1046DC000021204601F045FA4FF0FF336360044B94
:1046EC00258004225A60034A1A6038BDDCE303209B
:1046FC00D4E30320B05D0D0070470020704710B567
:10470C001021044600F00FFF204610BD08B508B17B
:10471C00FFF7F5FF08BD10B58368044613B10322FB
:10472C0001469847204610BD0022026010B54FF696
:10473C009C728280B1F9044084808A8002680C6883
:10474C0004600A6010BD10B504460068FFF714FF42
:10475C00204610BD38B5C468F4B12378022B03D1C0
:10476C0004F10C00FFF7EFFF656835B12846FFF741
:10477C00D2FF1021284600F0D6FEA56835B1284698
:10478C00FFF7C9FF1021284600F0CDFE204614216A
:10479C00BDE8384000F0C7BE38BD13B5044691E8FB
:1047AC00050000234B600B602060626001A8019340
:1047BC000093FFF734FF204602B010BDF7B50C464E
:1047CC0002AD54F8043B45F8083D06460F4601A8D7
:1047DC002146FFF71DFF29463046FFF7DEFF01A8F3
:1047EC00FFF71DFF2046FFF71AFF3846082100F09F
:1047FC009AFE304603B0F0BD13B50B46044603C811
:10480C008DE8030093E8030084E803009DE80300AF
:10481C0083E8030002B010BD38B5002304460360E2
:10482C0010200D46FFF731FC28B101234360836053
:10483C00024B0360C5602060204638BDE45D0D006E
:10484C00826810B50AB900F070FEC368BDE810406C
:10485C00184708B5006800F11001FFF7F1FF08BD1B
:10486C00826810B50AB900F060FEC368BDE810405C
:10487C00184708B5006800F11001FFF7F1FF08BDFB
:10488C0038B5002383608B6804460D462BB1022299
:10489C009847EB68E360AB68A360204638BD000026
:1048AC00F0B589B004686846FFF73EFF00238DF829
:1048BC0008304FF00202D4E84F3F002B03D1C4E87C
:1048CC00412F0029F7D102D08DF8083063E014F1A4
:1048DC000C0503D069462846FFF726FFBFF35F8F10
:1048EC0001236370002004F10803BFF35F8F53E8CA
:1048FC00006F43E80002002AF9D1BFF35F8F002E4E
:10490C0049D0FFF79BFD20B129463046FFF798FFB1
:10491C003AE0314602A8FFF7B3FFE068B4F9105053
:10492C0008B101F04FF906901020ADF81C50FFF7BC
:10493C00ACFB0546E8B1002787601820FFF7A5FB04
:10494C00044688B10146876002A8FFF755FF049B17
:10495C00A268A360059B049206A9E268E36004F1D7
:10496C0010000592FFF7E0FE0D4BEB600D4B2C6039
:10497C00AB6006A8FFF7E7FE02A8FFF7CCFE00220B
:10498C0029460948FFF762FD3046FFF7C4FE1021A7
:10499C00304600F0C8FD6846FFF7D5FE09B0F0BD03
:1049AC005F480D00D54A0D00C5450D002DE9F04FAF
:1049BC008BB006460F46904699469DF850A0FFF7DF
:1049CC006BFD07AD834630BB4FF62E73059005A9E2
:1049DC002846ADF81830FFF7A7FE1420FFF755FB5B
:1049EC00044658B10223037001234370C0F804B08D
:1049FC00C0F808B029460C30FFF796FE3046214629
:104A0C0040F8044BFFF708FF2846FFF79CFE05A86B
:104A1C00FFF799FE52E000240C2314206C60AC606C
:104A2C000793FFF732FB014618B1047044704460E1
:104A3C00846004A80391FFF7EFFE224B0893082033
:104A4C00FFF723FB044628B1039B40F8043B04A961
:104A5C00FFF7DEFD00955FFA8AF34A464146384679
:104A6C000994FFF721FD20B9039B5B7803F0FF024B
:104A7C0083B1039B059304A906A8FFF7C9FD05A9FB
:104A8C003046FFF78AFE06A8FFF7C9FD04A8FFF71A
:104A9C00C6FD13E04FF69C7305A903A80592ADF86B
:104AAC001830FFF7FDFE05A8FFF74DFE05A8099984
:104ABC00FFF784FE06A8FFF7B2FDDAE730460BB02D
:104ACC00BDE8F08F454C0D00022AF8B5044606D01F
:104ADC00032A17D0012A22D10B6803601FE018208B
:104AEC000E68FFF7D2FA054650B13146FFF7C8FE03
:104AFC003069B6F9147008B101F064F82861AF821E
:104B0C0025600CE0046854B104F11000FFF71BFEA3
:104B1C002046FFF700FE1821204600F004FD00207F
:104B2C00F8BD38B5002383608B6804460D462BB165
:104B3C0002229847EB68E360AB68A360204638BD5F
:104B4C00022A70B5044606D0032A11D0012A18D1C6
:104B5C000B68036015E014200E68FFF796FA054603
:104B6C0020B13146FFF7DDFF337C2B74256008E064
:104B7C00046834B12046FFF7CEFD1421204600F026
:104B8C00D2FC002070BD0000F0B5002387B00C46AD
:104B9C00BFF35F8F50E8006F40E80032002AF9D174
:104BAC00BFF35F8F002E3FD01846FFF747FC074638
:104BBC0020B121463046FFF753FE2EE0314601A8C6
:104BCC00FFF7AFFF23788DF814301020FFF75DFA54
:104BDC000546D0B187601420FFF757FA044678B128
:104BEC008760014601A8FFF707FE039BA268A3603C
:104BFC00049B0392E268E3609DF8143004922374E2
:104C0C000A4BEB600A4B2C60AB6001A8FFF783FDED
:104C1C00002229460748FFF719FC3046FFF77BFDB9
:104C2C001021304600F07FFC07B0F0BD7F480D002E
:104C3C004D4B0D00C5450D0030B585B004460D46F5
:104C4C0068461146FFF7BAFD7CB124B228460DB177
:104C5C0000F0B8FF029002A96846ADF80C40FFF7CF
:104C6C001FFE02A8FFF76FFD1DE000988DF80840AD
:104C7C004FF00102D0E84F3FA34203D1C0E8412FCF
:104C8C000029F7D102D08DF808300CE010F10C019E
:104C9C004FF0010318BF0373BFF35F8F043000F8AC
:104CAC00033CFFF771FF01A8FFF7B9FC05B030BD5D
:104CBC00002211464068FFF73FBC002211464068B5
:104CCC00FFF74ABC00224068FFF73EBC002281F08F
:104CDC0001014068FFF728BC00231A4619464068BA
:104CEC00FFF71ABC00231A4619464068FFF70CBCA4
:104CFC00002211464068FFF7FFBB002211464068B6
:104D0C00FFF7EABB002202214068FFF7EDBB00234E
:104D1C001A464068FFF7D8BB024B03225A60024A7E
:104D2C001A60704704E40320005E0D00704710B554
:104D3C001821044600F0F7FB204610BDF0B5037DAA
:104D4C00062B8DB00E4600F104074FF0000402D084
:104D5C0000F1080518E00CAD394605F8304D2F234D
:104D6C002A460A20FFF7D0FA284600F046FF33689F
:104D7C000246DB682946304698470FE024B12E21C5
:104D8C00304600F0D5F9044415F8011D0A223046CE
:104D9C0000F0D1F9BD420444F0D120460DB0F0BD75
:104DAC0010B5054B0446112240F8043B002100F0DD
:104DBC00D8FE204610BD00BF345E0D000346074AE6
:104DCC0010B543F8042B01F1100251F8044B43F8D1
:104DDC00044B9142F9D10A781A7010BD345E0D0063
:104DEC0010B59DF8084044EA032343EA024242EA24
:104DFC00016104234160037510BD37B50D788B78C4
:104E0C004A78C97800912946FFF7EAFF03B030BD14
:104E1C00014B024A1A6070470CE40320B05E0D008F
:104E2C00002211464068FFF787BB002211464068FC
:104E3C00FFF792BB00224068FFF786BB002281F08F
:104E4C0001014068FFF770BB00231A46012140683E
:104E5C00FFF762BB00231A4619464068FFF754BBA4
:104E6C00002211464068FFF747BB002211464068FC
:104E7C00FFF732BB002202214068FFF735BB00234D
:104E8C001A464068FFF720BB38B5054688B1046860
:104E9C004CB1A3681BB10322214620469847102130
:104EAC00204600F040FB28461421BDE8384000F0B5
:104EBC003ABB38BD10B103685B681847704710B532
:104ECC0003680446BBB15868FFF7D6F978B9236874
:104EDC005A7C12B95868FFF7D7F923685868FFF75E
:104EEC00DBF920680023236028B1FFF7CDFF206891
:104EFC0008B1FFF7C9FF204610BD38B50446D0F8FD
:104F0C00C40108B1FFF7C5F8D4F8C00108B1FFF728
:104F1C00D3F9D4F8BC5135B12846FFF7D0FF0421A2
:104F2C00284600F000FB206808B1FFF7C3FF2046BD
:104F3C0038BD000010B5044B044640F8083BFFF7A1
:104F4C00DCFF204610BD00BF245F0D0038B50E4CB1
:104F5C000E4B23600025022304F5E4706360A5600A
:104F6C00C4F8C451C4F8C851FFF79EF9084BC4F8F3
:104F7C00CC5184F8D05123602046064A0649BDE83E
:104F8C00384000F0CBBA00BF10E40320585F0D008E
:104F9C00245F0D00C4E30320414F0D0000231A468B
:104FAC004068FFF791BA002202214068FFF79CBAD3
:104FBC00002211464068FFF78FBA00221146406864
:104FCC00FFF79ABA00231A4619464068FFF79CBAB5
:104FDC0000231A4619464068FFF79EBA002281F05A
:104FEC0001014068FFF7A0BA00224068FFF7ACBA95
:104FFC00002211464068FFF7AFBA00221146406804
:10500C00FFF79ABA2DE9F043002495B016460D46E9
:10501C000746FFF7C5FE214620220CA8009400F09D
:10502C00A0FD40230C9321466B460CAA3046FFF79B
:10503C007BF90446002844D1024601216868FFF739
:10504C005BFA0221804622466868FFF755FA009EFB
:10505C0081462146002E34D0002932D17368022BB0
:10506C0002D00A2B09D02AE0B8F1000F27D07169C1
:10507C0038460431FFF7C1FE20E0B9F1000F1ED015
:10508C007469112201A800F06CFD06238DF8143010
:10509C0001AD04F108031834186859682A4603C294
:1050AC000833A3421546F7D101A906A807ADFFF7AF
:1050BC0085FE0FCD3C1D0FC42B6823700121F669B2
:1050CC00C8E70098FFF728F9384615B0BDE8F0831B
:1050DC00024B034A1A6000225A607047E4E5032031
:1050EC00585F0D00F8B506460D468F180024BD42DA
:1050FC000CD0336815F8011B9B6830469847002884
:10510C0001DB0444F3E7002C08BF04462046F8BD3D
:10511C0070B505460C46084649B100F06EFD2B688B
:10512C00024621462846DB68BDE87040184770BD32
:10513C0003689B68184730B58BB00B4600218DF87F
:10514C002410012A98BF0A220DF12304B3FBF2F5B7
:10515C0005FB123303F0FF03092B94BF30333733B5
:10516C00DBB2214604F801392B46002DEED1FFF7B6
:10517C00CFFF0BB030BD10B50446FFF7CCFA20467C
:10518C0010BD00000348044A04490023836000F06A
:10519C00C5B900BFECE50320C4E3032083510D0027
:1051AC0010B50446006818B1FFF7E6F90023236038
:1051BC0010BD10B50446FFF7F3FF204610BD0000EC
:1051CC0010B5094C00204FF6FF732060A080A07131
:1051DC0020816381FFF72AF92046044A0449BDE87F
:1051EC00104000F09BB900BFFCE50320C4E3032092
:1051FC00BF510D00024B1A68024B1A60704700BF7A
:10520C005CE3032008E6032070474174704708B53F
:10521C00007CFFF7C1F820EAE07008BD08B5007CFF
:10522C00FFF79AF820EAE07008BD08B5007CFFF79C
:10523C00A3F830EA200028BF4FF0FF3008BD08B5B6
:10524C00007CFFF791F830EA200028BF4FF0FF30C8
:10525C0008BD007CFFF798B810B51421044600F087
:10526C0062F9204610BD70B5457C04460E4625B942
:10527C00007CFFF791F8002805DD3146207CBDE865
:10528C007040FFF761B8284670BD000010B50446A9
:10529C0008461146002262604FF47A72A260054AF9
:1052AC0022600122207462741A46FFF745F82046EA
:1052BC0010BD00BFB85F0D0038B50C4D296811F05A
:1052CC00010411D12846FEF7E6FE68B1084A094BE5
:1052DC0009482146FFF7DAFF2846FEF7E1FE074AA8
:1052EC000749054800F01AF9034838BDA4E6032025
:1052FC00A8E6032020E603200CE60320C4E30320E9
:10530C0015520D0041747047704708B50021007CA0
:10531C00FFF762F830EA200028BF4FF0FF3008BDDD
:10532C0008B50121007CFFF757F830EA200028BFB0
:10533C004FF0FF3008BD08B5007CFFF745F820EAB8
:10534C00E07008BD08B5007CFFF736F820EAE07085
:10535C0008BD007CFFF750B810B51421044600F0CE
:10536C00E2F8204610BD38B50446007C0D46FFF728
:10537C002BF8002801DC607C28B12946207CFFF743
:10538C0033F820EAE07038BD10B5044600236360A2
:10539C004FF47A73A360054B2360012308462174F4
:1053AC0063741146FFF700F8204610BDE85F0D004E
:1053BC0010B514220446002100F0D3FB204610BD8A
:1053CC0030B50E4D87B001A8FFF7F2FF296811F038
:1053DC00010410D12846FEF75EFE60B101AA2146F9
:1053EC000748FFF7D1FF2846FEF75AFE054A064943
:1053FC00034800F093F8024807B030BD2CE70320B7
:10540C0030E70320C4E3032015530D0008B50C4B03
:10541C0033B1FFF7D5FF03681B699847002809DCF7
:10542C00084B63B1FFF748FF03681B6998470028D6
:10543C0003DC08BDAFF30080F2E7AFF3008008BDDA
:10544C00000000000000000008B5FFF7DFFFFEF7CA
:10545C004BFF014B186008BD4CE703200248034A80
:10546C000349121A00F072BB00F4032004F4032069
:10547C00B0600D0007B5002300931A466FF077015A
:10548C00FEF7F6FF03B05DF804FB000007B5438898
:10549C000A2B08D0502B09D1094B1B683BB103B028
:1054AC005DF804EB1847FFF7E5FF06E000230093D7
:1054BC001A466FF07701FEF7DBFF03B05DF804FBD3
:1054CC0044E7032038B5104C104D2368AB42104B09
:1054DC000CBF012200221A7002D0FFF7BFFF25601B
:1054EC00FEF7F2FE044600F045FB0A4B13B12046D2
:1054FC00AFF3008000210748FEF7DEFF00210648CD
:10550C00BDE83840FEF7AABF00F403201E1C279A02
:10551C0048E703200000000099540D000B4601469B
:10552C00184600F005BBFEF7B2BD08B5FFF734F81E
:10553C00244B1A68D0075CBF01221A60224B1A68F0
:10554C00D1075CBF01221A60204B1A68D2075CBFDE
:10555C0001221A601E4B1A68D0075CBF01221A6028
:10556C001C4B1A68D1075CBF01221A601A4B1A68CF
:10557C00D2075CBF01221A60184B1A68D0075CBFB7
:10558C0001221A60164B1A68D1075CBF01221A60FF
:10559C00144B1A68D2075CBF01221A60124B1A68AE
:1055AC00D0075CBF01221A60104B1A68D1075CBF90
:1055BC0001221A600E4B1A68D2075CBF01221A60D6
:1055CC00704700BF7CE7032078E7032074E70320D3
:1055DC0070E703206CE7032068E7032064E70320EF
:1055EC0060E703205CE7032058E7032054E703201F
:1055FC0050E70320184B1A68D1075CBF01221A60D0
:10560C00164B1A68D2075CBF01221A60144B1A6839
:10561C00D0075CBF01221A60124B1A68D1075CBF1D
:10562C0001221A60104B1A68D2075CBF01221A6063
:10563C000E4B1A68D0075CBF01221A600C4B1A681B
:10564C00D1075CBF01221A600A4B1A68D2075CBFF3
:10565C0001221A60704700BF9CE7032098E70320E3
:10566C0094E7032090E703208CE7032088E70320CE
:10567C0084E7032080E70320184B1A68D1075CBF2E
:10568C0001221A60164B1A68D2075CBF01221A60FD
:10569C00144B1A68D0075CBF01221A60124B1A68AF
:1056AC00D1075CBF01221A60104B1A68D2075CBF8D
:1056BC0001221A600E4B1A68D0075CBF01221A60D7
:1056CC000C4B1A68D1075CBF01221A600A4B1A688E
:1056DC00D2075CBF01221A60704700BFBCE70320F1
:1056EC00B8E70320B4E70320B0E70320ACE70320BE
:1056FC00A8E70320A4E70320A0E70320244B1A68A3
:10570C00D0075CBF01221A60224B1A68D1075CBF1C
:10571C0001221A60204B1A68D2075CBF01221A6062
:10572C001E4B1A68D0075CBF01221A601C4B1A680A
:10573C00D1075CBF01221A601A4B1A68D2075CBFF2
:10574C0001221A60184B1A68D0075CBF01221A603C
:10575C00164B1A68D1075CBF01221A60144B1A68E9
:10576C00D2075CBF01221A60124B1A68D0075CBFCB
:10577C0001221A60104B1A68D1075CBF01221A6013
:10578C000E4B1A68D2075CBF01221A60704700BF2B
:10579C00ECE70320E8E70320E4E70320E0E703203D
:1057AC00DCE70320D8E70320D4E70320D0E703206D
:1057BC00CCE70320C8E70320C4E70320C0E703209D
:1057CC0081F0004102E000BF83F0004330B54FEAA6
:1057DC0041044FEA430594EA050F08BF90EA020F13
:1057EC001FBF54EA000C55EA020C7FEA645C7FEAA6
:1057FC00655C00F0E2804FEA5454D4EB5555B8BFC9
:10580C006D420CDD2C4480EA020281EA030382EA39
:10581C00000083EA010180EA020281EA0303362DCB
:10582C0088BF30BD11F0004F4FEA01314FF4801C9E
:10583C004CEA113102D0404261EB410113F0004FB0
:10584C004FEA03334CEA133302D0524263EB430367
:10585C0094EA050F00F0A780A4F10104D5F1200E05
:10586C000DDB02FA0EFC22FA05F2801841F1000160
:10587C0003FA0EF2801843FA05F359410EE0A5F134
:10588C0020050EF1200E012A03FA0EFC28BF4CF065
:10589C00020C43FA05F3C01851EBE37101F000451B
:1058AC0007D54FF0000EDCF1000C7EEB00006EEB28
:1058BC000101B1F5801F1BD3B1F5001F0CD34908B2
:1058CC005FEA30004FEA3C0C04F101044FEA445209
:1058DC0012F5800F80F09A80BCF1004F08BF5FEA90
:1058EC00500C50F1000041EB045141EA050130BD70
:1058FC005FEA4C0C404141EB010111F4801FA4F113
:10590C000104E9D191F0000F04BF01460020B1FA67
:10591C0081F308BF2033A3F10B03B3F120020CDA9F
:10592C000C3208DD02F1140CC2F10C0201FA0CF07D
:10593C0021FA02F10CE002F11402D8BFC2F1200CE2
:10594C0001FA02F120FA0CFCDCBF41EA0C01904098
:10595C00E41AA2BF01EB0451294330BD6FEA0404E1
:10596C001F3C1CDA0C340EDC04F11404C4F12002CC
:10597C0020FA04F001FA02F340EA030021FA04F3DE
:10598C0045EA030130BDC4F10C04C4F1200220FA35
:10599C0002F001FA04F340EA0300294630BD21FA73
:1059AC0004F0294630BD94F0000F83F4801306BF39
:1059BC0081F480110134013D4EE77FEA645C18BF2D
:1059CC007FEA655C29D094EA050F08BF90EA020FC4
:1059DC0005D054EA000C04BF1946104630BD91EABC
:1059EC00030F1EBF0021002030BD5FEA545C05D1BF
:1059FC004000494128BF41F0004130BD14F58004FE
:105A0C003CBF01F5801130BD01F0004545F0FE4171
:105A1C0041F470014FF0000030BD7FEA645C1ABFA6
:105A2C00194610467FEA655C1CBF0B46024650EADD
:105A3C00013406BF52EA033591EA030F41F4002109
:105A4C0030BD00BF90F0000F04BF0021704730B58F
:105A5C004FF4806404F132044FF000054FF0000164
:105A6C0050E700BF90F0000F04BF0021704730B525
:105A7C004FF4806404F1320410F0004548BF4042FA
:105A8C004FF000013EE700BF42004FEAE2014FEA4F
:105A9C0031014FEA02701FBF12F07F4393F07F4F2A
:105AAC0081F06051704792F0000F14BF93F07F4F5C
:105ABC00704730B54FF4607401F0004521F000419F
:105ACC0020E700BF50EA010208BF704730B54FF025
:105ADC0000050AE050EA010208BF704730B511F02A
:105AEC00004502D5404261EB41014FF4806404F162
:105AFC0032045FEA915C3FF4DCAE4FF003025FEAE4
:105B0C00DC0C18BF03325FEADC0C18BF033202EB6B
:105B1C00DC02C2F1200300FA03FC20FA02F001FAC5
:105B2C0003FE40EA0E0021FA02F11444C1E600BF64
:105B3C0010B5054C13462CB10A4601460220AFF3B2
:105B4C00008010BD204610BD0000000010B5431EA3
:105B5C000A44914204D011F8014B03F8014FF8E7C5
:105B6C0010BD02440346934202D003F8011BFAE72E
:105B7C007047000038B5124B1C68A36B0546D3B9AF
:105B8C001820FEF7F1FC43F20E33A06303804AF6B3
:105B9C00CD33438041F2342383804EF26D63C38056
:105BAC004DF6EC630381052343810B238381012292
:105BBC000023C0E90423A36B00221D615A6138BD88
:105BCC00C0E30320024B0146186800F003B800BF85
:105BDC00C0E3032070B5064608460C4600F00DF8ED
:105BEC00451C29463046FEF7DFFC064618B12A460E
:105BFC002146FFF7ABFF304670BD034613F8012B6F
:105C0C00002AFBD1181A0138704700001D400D0006
:105C1C0059400D0085400D0089400D00000000002A
:105C2C006E5C0D00765C0D007A5C0D00835C0D00E3
:105C3C008B5C0D00975C0D009D5C0D0042617474D3
:105C4C0065727920534F433A20252E316620616EC0
:105C5C00642053746174653A202573005374617425
:105C6C006500556E6B6E6F776E004E6F74204368D7
:105C7C00617267696E6700436861726765640044AE
:105C8C0069736368617267696E67004661756C74ED
:105C9C00004469636F6E6E65637465640079656159
:105CAC00723D25303278206D6F6E74683D25303230
:105CBC0078206461794F664D6F6E74683D25303283
:105CCC0078206461794F665765656B3D2530327875
:105CDC0020686F75723D25303278206D696E757451
:105CEC00653D25303278207365636F6E643D2530D9
:105CFC003278206D6F64653D256400646576696358
:105D0C006552656164206661696C656420737461B9
:105D1C00743D2564007365742054696D652066724A
:105D2C006F6D20525443202573006465766963655A
:105D3C005772697465206661696C6564207374615F
:105D4C00743D256400736574205254432066726F51
:105D5C006D20636C6F756420257300636C6F7564C4
:105D6C002074696D65206E6F742076616C696400B7
:105D7C006465766963655772697465454550524F21
:105D8C004D206661696C656420737461743D256493
:105D9C00006170702E72746300000000000000003F
:105DAC0000000000CB460D00C1460D00B7460D00AB
:105DBC006D460D00AB460D009F460D0093460D0041
:105DCC008B460D0081460D0077460D0011500D00DD
:105DDC00000000000000000005470D000B470D00FF
:105DEC0061470D0019470D0007470D00000000002A
:105DFC00000000001B4D0D00114D0D00074D0D0056
:105E0C00FD4C0D00F14C0D00E54C0D00D94C0D0076
:105E1C00D14C0D00C74C0D00BD4C0D0011500D00A8
:105E2C000000000000000000494D0D00394D0D0030
:105E3C003B4D0D00626175640053657269616C00C5
:105E4C0053657269616C31007479706500706172B0
:105E5C00616D00636D6400686E64007374726D0034
:105E6C0066696C74006C766C0061646448616E6485
:105E7C006C65720072656D6F766548616E646C65F9
:105E8C007200656E756D48616E646C657273004A64
:105E9C00534F4E53747265616D4C6F6748616E64FD
:105EAC006C65720061707000253031307520005DBA
:105EBC0020002C200028293A2000205B00636F640E
:105ECC0065203D200025690064657461696C732050
:105EDC003D20000D0A0066006C6E00666E00636F5C
:105EEC0064650064657461696C006E6F6E65007446
:105EFC007261636500696E666F007761726E006532
:105F0C0072726F720070616E696300616C6C00007C
:105F1C0000000000000000008B4E0D00814E0D00B3
:105F2C00774E0D006D4E0D00614E0D00554E0D005F
:105F3C00494E0D00414E0D00374E0D002D4E0D00FB
:105F4C0011500D000000000000000000A94F0D00D2
:105F5C00B34F0D00BD4F0D00C74F0D00D14F0D00BD
:105F6C00DD4F0D00E94F0D00F54F0D00FD4F0D00FD
:105F7C0007500D0011500D005A00252B3033643A98
:105F8C00253032750025592D256D2D256454254855
:105F9C003A254D3A2553257A0061736374696D6512
:105FAC0000000000000000000000000015520D0071
:105FBC0065520D0073520D00F1500D0029520D0069
:105FCC004B520D0037520D005F520D0017520D0051
:105FDC001B520D00000000000000000015530D00C6
:105FEC0065530D0073530D00F1500D0051530D000E
:105FFC0017530D002D530D005F530D0043530D002F
:10600C0011530D0000000000000000000000000013
:10601C000000000000000000000000000000000074
:10602C000000000000000000000000000000000064
:10603C000000000000000000000000000000000054
:10604C000000000000000000000000000000000044
:10605C000000000000000000000000000000000034
:10606C0000000000430000005D420D006D420D0079
:10607C0045460D00D5460D00254D0D001D4E0D005D
:10608C00594F0D00DD500D0091510D00CD510D00FB
:10609C0001520D003D550D0001560D0085560D00A9
:0460AC0009570D0083
:0460B00000000000EC
:1060B4004E756C6C00000000000000000000000041
:1060C40000000000000000000000000000000000CC
:1060D40000000000000000000000000000000000BC
:1060E40000000000000000000000000000000000AC
:1060F400A55F0D000000000010600D0030600D0071
:1061040050600D00000000000000000000000000CE
:106114000000000070600D0000000000000000009E
:10612400000000000000000000000000000000006B
:10613400000000000000000000000000000000005B
:10614400000000000000000000000000000000004B
:086154000000000060E30320DD
:10615C00FFFFFFFF00000102030405060708090A00
:10616C000B0C0D0E0F101112131415161718191AFB
:08617C001B1C1D1E1F20280042
:046184007856341203
:04000003D000401CCD
:00000001FF
