:02000002D0002C
:1040000000400D0080A60D00000006000D00050117
:084010000401E70500000000B7
:044018001C9A0D00E1
:10401C0009480A49884208B505D0094A824202D0AB
:10402C00121A04F011F90748074A0021121A04F079
:10403C0031F9014808BD00BFF4E0032094A50D0040
:10404C00B8E10320B8E10320F0E7032070B503F0DA
:10405C00E1FA074C074BE41AA40800251E46A542BA
:10406C0004D056F8253098470135F8E770BD00BFED
:10407C008CA50D0050A50D0000F084B808B500F01B
:10408C00C5F8BDE8084003F087BA01F003B901F0A8
:10409C0001B9000008B5034A00210C2001F014F806
:1040AC00FEE700BF154E0D000078B0FA80F0400915
:1040BC0070470123037070477047006A0368DB6820
:1040CC00184700000A4B10B50446036001F014FEBB
:1040DC00214602F001F803F093F903F08AF9204627
:1040EC00044B40F8043B01F0FDFE204610BD00BF20
:1040FC00509A0D00389A0D0010B50446FFF7E2FFF8
:10410C002046242103F097FB204610BD10B5034B2D
:10411C0003600446FFF7D6FF204610BD689A0D00D9
:10412C0010B50446FFF7F2FF2046242103F083FB71
:10413C00204610BD08B52DED028BB0EE408A28B19B
:10414C000138FFF7F7FF28EE000A01E0B7EE000A8E
:10415C00BDEC028B08BD0EB400B58CB00DAA2023AB
:10416C0052F8041B03928DE80600049301680023A7
:10417C0004AA0120059300F0AFFF0CB05DF804EB2E
:10418C0003B0704710B50D4C204600F011FC2046D2
:10419C000B4C002100F061FD2088012103F09CFAFA
:1041AC000121208803F0A9FA4FF4FA6001F0B2F86B
:1041BC0020880021BDE8104003F09FBAE0E1032005
:1041CC00F4E0032030B585B00D4604A9002241F877
:1041DC00102D00F099FFA8B9009C0CB1236923B9EC
:1041EC00094A00210A2000F06FFF002301930C23E1
:1041FC00ADF80430042303930295236901AA01212D
:10420C002046984705B030BD154E0D00F0B52DED8C
:10421C00028B8FB00121684602F057FD514952487C
:10422C00FFF799FF684602F0D1FD504902464E480F
:10423C00FFF791FF684602F093FD4D4902464A484C
:10424C00FFF789FF684602F097FD4A490246464847
:10425C00FFF781FF684602F09CFD47490246424841
:10426C00FFF779FF684602F0AEFD434902463E482F
:10427C00FFF771FF684602F0A3FD3F4902463A483A
:10428C00FFF769FF684602F098FD3B490246364845
:10429C00FFF761FF07A91820FFF794FF07A9071E76
:1042AC004FF00700A8BF079FFFF78CFF07A9061E5A
:1042BC004FF00300A8BF079EFFF784FF88B90620C4
:1042CC00B0EE000AFFF736FFBDF81C3030EE000AE6
:1042DC0007EE903A30EE000AF8EE677A87EE808AA5
:1042EC0001E0BFEE008A254C0FCC07AD0FC594E85A
:1042FC0007000C3485E807000FCC01AD0FC594E81E
:10430C0003000EAB85E8030027EAE77703EB87078A
:10431C001B4957F8342C1448FFF71DFF26EAE676A4
:10432C000EAB03EB8606174956F81C2C0E48FFF70C
:10433C0012FF18EE100A03F047FD02460B460A481E
:10434C001149FFF708FF4FF4FA6000F0E3FF0F4844
:10435C0000F046FC684602F0C7FC0FB0BDEC028BC7
:10436C00F0BD00BFAC9A0D0070E20320C39A0D00A3
:10437C00D09A0D00DD9A0D00E69A0D00789A0D008A
:10438C00F09A0D00019B0D00139B0D00E0E1032042
:10439C0070B5046843681426054606FB0346A6421E
:1043AC0004D0204602F0EDFD1434F8E7286800F044
:1043BC0071FF284670BD8842F8B506460C46154676
:1043CC0016D9904215D2A2F114056C1AA1F114075A
:1043DC000444AF421CD02CB12946204602F0C1FD4A
:1043EC002B7C2374284602F0CCFD143D143CF0E7E2
:1043FC000ED0AC420CD02EB12146304602F0B1FDAD
:10440C00237C3374204602F0BCFD14341436F0E7E0
:10441C00F8BD2DE9F04100230360436083604E68D2
:10442C009E4204460F4624DD4FF0140808FB06F0AC
:10443C0000F028FF0546E0B194E8060008FB0212E4
:10444C00FFF7B9FF206800F025FF2560A6603E68E5
:10445C007B6808FB0368464509D02DB131462846D8
:10446C0002F0F8FD337C2B7414361435F3E77B68BB
:10447C0063602046BDE8F0812DE9F0418CB000234B
:10448C00044690460093019302930E4602F0B8FF47
:10449C006946074603A8FFF7BCFF254603A906A8F3
:1044AC00FFF7B7FF164B45F8043B06A909A8FFF721
:1044BC00B0FF09AA4146284601F075FF09A8FFF78D
:1044CC0067FF06A8FFF764FF0E4B2360276203A863
:1044DC00FFF75EFF0C4B236002F092FF314602F0B7
:1044EC0085FF01F009FC214601F0F0FE6846FFF75C
:1044FC004FFF064B236020460CB0BDE8F08100BF97
:10450C00389A0D00CC9E0D00509A0D00689A0D0043
:10451C0038B50E4C0E4D00F09FFC01224FF461415A
:10452C002046FFF7A9FF2A460A49204603F07EF9E8
:10453C0003F030F9084C0146204600F077F92A4682
:10454C0020460649BDE8384003F070B9BCE10320B1
:10455C00B8E1032019410D00E0E1032083450D0073
:10456C00402070470020704780207047FF20704724
:10457C00704770477047704710B51421044603F01C
:10458C005AF9204610BD10B50821044603F053F922
:10459C00204610BD10B50821044603F04CF9204606
:1045AC0010BD10B51C21044603F045F9204610BD82
:1045BC002DE9FF410368DB68054698471022014648
:1045CC00684603F067FE2B6828469B6898470024D2
:1045DC0007462046BC420ED23E1B102E2B6828BF2D
:1045EC001026D3F818806A46334621462846C04721
:1045FC0008B13444EEE704B0BDE8F0810368C9B2F9
:10460C009B6818470EB400B58CB00DAA202352F845
:10461C00041B03928DE8060004930168002304AA8E
:10462C001E20059300F058FD0CB05DF804EB03B0B0
:10463C007047002301228372C27202734273837328
:10464C00C373037443747047012208B5427102228C
:10465C0082710322064BC271042203600272002392
:10466C000722037142724374FFF7E3FF08BD00BFDA
:10467C00D89C0D0003090A2200F00F0002FB030076
:10468C00704708B5807AFFF7F5FF00F5FA6008BDB2
:10469C00C07A00F01F00FFF7EDBF007B00F03F0079
:1046AC00FFF7E8BF08B5817B4A060DD501F01F0066
:1046BC00FFF7E0FF8B0603D50C280BD00C3008BDA0
:1046CC000C2808BF002008BD01F03F00BDE80840E1
:1046DC00FFF7D0BF08BDC07B00F07F00FFF7CABF5B
:1046EC00007C00F07F00FFF7C5BF10B58AB0242214
:1046FC000021044601A803F0CDFD2046FFF7C1FFC1
:10470C00A0F26C7006902046FFF7C2FF01380590AE
:10471C002046FFF7C2FF04902046FFF7C3FF03902B
:10472C002046FFF7D8FF02902046FFF7D9FF0190F3
:10473C0001A803F093FE0AB010BD0A2290FBF2F31D
:10474C0093FBF2F102FB113102FB130343EA01105C
:10475C00C0B27047642310B5044691FBF3F000FB24
:10476C001310FFF7EAFFA07210BD10B504460846FF
:10477C00FFF7E3FFE07210BD10B504460846FFF7E3
:10478C00DCFF237B23F03F031843207310BD10B5CF
:10479C000446481CFFF7D1FF637B23F00703184343
:1047AC00607310BD10B504460846FFF7C6FFA07332
:1047BC0010BD10B504460846FFF7BFFFE07310BDEF
:1047CC0010B504460846FFF7B8FF237C23F07F039F
:1047DC001843207410BD37B5044602A840F8041DD8
:1047EC0003F090FB054641692046FFF7B3FF2969AA
:1047FC0020460131FFF7B9FFE9682046FFF7BCFFFF
:10480C00A9692046FFF7C3FFA9682046FFF7CAFF36
:10481C0069682046FFF7CDFF29683B29A8BF3B21DB
:10482C002046FFF7CDFF03B030BD0000084A026000
:10483C000022027242720122827203460322C27269
:10484C00044A41601861C260034A98614261704732
:10485C00E89C0D00B89B0D00949B0D002DE9F84FC2
:10486C0005460F4691469A4600240A9B9C4230D23C
:10487C003946686800F0ACFE09EB04016868FFF784
:10488C00BDFE0021686800F0AAFE0646D8B90A9B56
:10489C0068681A1B202A4FF0010328BF20223946D2
:1048AC0000F084FE0AEB040883464646C8EB060378
:1048BC009B4506D9686803685B69984706F8010B45
:1048CC00F4E75C44D1E7024604490548FFF79AFE39
:1048DC0000E000263046BDE8F88F00BF329C0D008A
:1048EC00FCE103201FB5012300930A4603AB6F21A3
:1048FC00FFF7B4FF10B99DF80C0000E0002005B0E4
:10490C005DF804FB08B50321FFF7ECFFC0F3401082
:10491C0008BD7FB51E46002B0CBF07230623009352
:10492C00144602AB0A466F21FFF798FF0546D8B92B
:10493C009DF8083023749DF80930E3739DF80A3014
:10494C00A3739DF80B3063739DF80C3023739DF8A3
:10495C000D30E3721EB99DF80E30A37204E002F024
:10496C00D5FCFFF7EAFEA072284604B070BD38B53E
:10497C0000230C460A4619460546FFF7CAFF28B91C
:10498C00A37A1BB12846FFF7BDFF00B9002038BD44
:10499C0010B586B0044601A8FFF756FE01A92046C3
:1049AC00FFF7E5FF10B101A8FFF79FFE06B010BDA1
:1049BC0030B5044685B0406800F0D6FD02F07EFCB0
:1049CC00C0B9E37A9B0715D52046FFF7E1FF0546F2
:1049DC0080B102F0B2FB094B09491B682A466846B4
:1049EC0002F03AFC0748009A0749FFF70BFE6846AD
:1049FC0002F0C7FA0123237205B030BD00E1032099
:104A0C00A0E40320FCE103204C9C0D002DE9F341B4
:104A1C0001EB03081E4603689B6804460D461746C7
:104A2C00984780450AD800963B46EAB25721606801
:104A3C00FFF714FFB0FA80F0400900E0002002B04C
:104A4C00BDE8F0812DE9F34101EB03081E46036834
:104A5C009B6805460C461746984780450CD804F1D0
:104A6C00200200963B46D2B26F216868FFF7F6FE33
:104A7C00B0FA80F0400900E0002002B0BDE8F081FF
:104A8C002DE9F84F0746894692469B4600240A9B1F
:104A9C009C4228D24946786800F09AFD0AEB040142
:104AAC007868FFF7ABFD0A9B1E1B1F2E0BEB04084F
:104ABC0028BF1F264546786815F8011B02689268C6
:104ACC009047C8EB0502B242F5D30121786800F09B
:104ADC0086FD054628B1024605490648FFF792FDBA
:104AEC0002E03444D3E700252846BDE8F88F00BF28
:104AFC00619C0D00FCE103201FB5137C8DF8083080
:104B0C00D37B8DF80930937B8DF80A30537B8DF86D
:104B1C000B30137B8DF80C30D37A8DF80D30937AE3
:104B2C008DF80E30072300930A4602AB6F21FFF776
:104B3C00A7FF05B05DF804FB10B586B0044601A8CC
:104B4C00FFF782FD01A8FFF746FE9DF81430A27A0C
:104B5C0063F07F038DF814309DF8113012B143F0DF
:104B6C00080301E023F0080301AA002120468DF878
:104B7C001130FFF7C1FFB0FA80F0400906B010BD4C
:104B8C007FB5064602F09AFB0446B8B102F0B7FBBB
:104B9C00054601463046FFF7CFFF0C4B0C491B680E
:104BAC002A460446684602F057FB009A09490A480F
:104BBC00FFF728FD684602F0E4F903E007490648D0
:104BCC00FFF720FD204604B070BD00BF00E10320BC
:104BDC00A0E403207C9C0D00FCE10320929C0D00C2
:104BEC0037B5457A04468DB902F068FB70B102A85E
:104BFC00294640F8045D00F0E5FA38B1E37ADB07AA
:104C0C0002D52046FFF7BCFF0123637203B030BD11
:104C1C001FB504AB03F8042D012200920A466F2144
:104C2C00FFF72EFF05B05DF804FBF8B514460546FA
:104C3C000E461F46FFF756FE204040EA070231465B
:104C4C002846BDE8F840FFF7E3BF13B11346FF2237
:104C5C0001E0D243D2B2FFF7E8BF012908B50CD866
:104C6C0000294FF000030CBF102220220721FFF770
:104C7C00ECFFB0FA80F0400908BD002008BD2DE91A
:104C8C00F34101EB03081E4603689B6805460C467E
:104C9C001746984780450CD804F1200200963B46F5
:104CAC00D2B26F216868FFF7EBFEB0FA80F04009D2
:104CBC0000E0002002B0BDE8F08138B50546322492
:104CCC005721686800F084FC0121686800F087FCBB
:104CDC0008B1013CF4D138BD2DE9F0410546D71897
:104CEC001446C2EB0108BC421ED05721686800F084
:104CFC006FFC08EB04016868FFF780FC686814F827
:104D0C00011B03689B6898470121686800F067FCE9
:104D1C00064628B1024606490648FFF773FC04E034
:104D2C002846FFF7CAFFDEE700263046BDE8F081D3
:104D3C00A79C0D00FCE103202DE9F04101EB0308D9
:104D4C001E4603689B6804460D46174698478045E7
:104D5C000AD833463A46E9B26068FFF7BDFFB0FAAD
:104D6C0080F04009BDE8F0810020BDE8F081000032
:104D7C0008B500F071F8024B024A1A6008BD00BF7A
:104D8C00FCE10320C89C0D0008B5024B1B689B6816
:104D9C00019308BD4802030008B5024B1B681B6950
:104DAC00019308BD4802030008B5024B1B685B6900
:104DBC00019308BD4802030008B5024B1B685B6CED
:104DCC00019308BD4802030008B5024B1B689B6C9D
:104DDC00019308BD4802030008B5024B1B68DB6C4D
:104DEC00019308BD4802030008B5024B1B685B6DBC
:104DFC00019308BD4802030008B5024B1B685B68B1
:104E0C00019308BD1802030008B5024B1B68DB6850
:104E1C00019308BD1802030008B5024B1B685B69BF
:104E2C00019308BD1802030008B5024B1B68DB692F
:104E3C00019308BD1802030008B5024B1B681B6ADE
:104E4C00019308BD1802030008B5024B1B689B6D4B
:104E5C00019308BD1802030008B5024B1B681B68C0
:104E6C00019308BD2C02030008B5024B1B689B681C
:104E7C00019308BD2C02030008B5024B1B68DB68CC
:104E8C00019308BD2C02030008B5024B1B681B697B
:104E9C00019308BD2C02030008B5024B1B68DB68AC
:104EAC00019308BD2802030008B5024B1B689B69DF
:104EBC00019308BD2802030008B5024B1B68DB698F
:104ECC00019308BD2802030008B5024B1B681B6A3E
:104EDC00019308BD2802030008B5024B1B685B6AEE
:104EEC00019308BD2802030008B5024B1B689B6A9E
:104EFC00019308BD2802030008B5024B1B68DB6A4E
:104F0C00019308BD2802030008B5024B1B681B6BFC
:104F1C00019308BD2802030008B5024B1B685B6BAC
:104F2C00019308BD2802030008B5024B1B681B6CDB
:104F3C00019308BD2802030008B5024B1B689B6C4B
:104F4C00019308BD2802030008B5024B1B68DB6CFB
:104F5C00019308BD2802030008B5024B1B681B6DAA
:104F6C00019308BD2802030008B5024B1B685B695E
:104F7C00019308BD6402030008B5024B1B689B68D3
:104F8C00019308BD6802030008B5024B1B68DB687F
:104F9C00019308BD6802030008B5024B1B68DB696E
:104FAC00019308BD3002030008B5024B1B681B6A55
:104FBC00019308BD3002030008B5024B1B681B6847
:104FCC00019308BD3C02030008B5024B1B689B68AB
:104FDC00019308BD3C02030008B5024B1B68DB685B
:104FEC00019308BD3C02030008B5024B1B681B690A
:104FFC00019308BD3C02030008B5024B1B685B69BA
:10500C00019308BD3C02030008B5024B1B689B6969
:10501C00019308BD3C02030008B5024B1B68DB6919
:10502C00019308BD3C02030008B5024B1B681B6AC8
:10503C00019308BD3C02030008B5024B1B689B6A38
:10504C00019308BD3C02030008B5024B1B68DB6AE8
:10505C00019308BD3C02030008B5024B1B681B689A
:10506C00019308BD4C02030008B5024B1B685B683A
:10507C00019308BD4C02030008B5024B1B681B6969
:10508C00019308BD4C02030008B5024B1B685B6919
:10509C00019308BD4C02030008B5024B1B689B69C9
:1050AC00019308BD4C02030008B5024B1B68DB6979
:1050BC00019308BD4C02030008B5024B1B681B6A28
:1050CC00019308BD4C02030008B5024B1B685B6BD7
:1050DC00019308BD6002030008B5024B1B685B6DB1
:1050EC00019308BD6002030008B5024B1B68DB6E20
:1050FC00019308BD6002030008B5024B1B681B6FCF
:10510C00019308BD6002030008B5034B1B68D3F87C
:10511C009830019308BD00006002030008B5024BF3
:10512C001B681B68019308BD2002030008B5024BE5
:10513C001B685B68019308BD2002030008B5024B95
:10514C001B685B69019308BD2002030008B5024B84
:10515C001B689B6D019308BD2002030008B5024B30
:10516C001B68DB6D019308BD2002030008B5034BDF
:10517C001B68D3F88830019308BD0000200203009F
:10518C0008B5034B1B68D3F89430019308BD00009D
:10519C002002030008B5024B1B689B68019308BDF5
:1051AC004402030008B5024B1B685B69019308BD00
:1051BC004402030008B5024B1B681B6B019308BD2E
:1051CC004402030008B5024B1B685B6B019308BDDE
:1051DC004402030008B5024B1B68DB6B019308BD4E
:1051EC004402030008B5024B1B685B68019308BDC1
:1051FC004002030008B5024B1B689B68019308BD75
:10520C004002030008B5024B1B68DB68019308BD24
:10521C004002030008B5024B1B681B69019308BDD3
:10522C004002030008B5024B1B685B69019308BD83
:10523C004002030008B5024B1B689B69019308BD33
:10524C004002030008B5024B1B68DB69019308BDE3
:10525C004002030008B5024B1B681B6A019308BD92
:10526C004002030008B5024B1B681B6B019308BD81
:10527C004002030008B5024B1B685B6B019308BD31
:10528C004002030008B5024B1B681B68019308BD64
:10529C001C02030008B5024B1B685B68019308BD38
:1052AC001C02030008B5024B1B689B68019308BDE8
:1052BC001C02030008B5024B1B681B69019308BD57
:1052CC001C02030008B5024B1B689B69019308BDC7
:1052DC001C02030008B5024B1B68DB69019308BD77
:1052EC001C02030008B5024B1B681B6A019308BD26
:1052FC001C02030008B5024B1B685B6A019308BDD6
:10530C001C02030008B5024B1B681B6B019308BD04
:10531C001C0203000021FFF711BF10B50446006802
:10532C0008B1FFF751FD204610BD10B503680446C7
:10533C009B689847A368013BA3602BB92368204660
:10534C00DB68BDE81040184710BD0B68036013B153
:10535C005A6801325A60704710B50446006828B18B
:10536C004368013B43600BB9FFF7DFFF204610BDDC
:10537C0038B50C6803689C4205460CD014B16368C0
:10538C0001336360286828B14368013B43600BB963
:10539C00FFF7CBFF2C60284638BD000010B5064C3B
:1053AC00002320462360FFF707FD2046034A0449EB
:1053BC00BDE8104002F03ABA00E20320B8E1032045
:1053CC0027530D00002211464068FFF723BF00222F
:1053DC0011464068FFF73EBF002211464068FFF7B8
:1053EC0049BF00224068FFF73DBF002281F0010158
:1053FC004068FFF727BF00231A4619464068FFF79D
:10540C0019BF00231A4619464068FFF70BBF00224C
:10541C0011464068FFF7EEBE002202214068FFF7FC
:10542C00F1BE00231A464068FFF7DCBE38B5084CC5
:10543C0028252A460021204602F02CFF4FF0FF338E
:10544C006360044B258004225A60034A1A6038BDFD
:10545C000CE2032004E20320F89C0D0010B58368D5
:10546C00044613B1032201469847204610BD002282
:10547C0011464068FFF7EEBE002211464068FFF768
:10548C00F9BE00224068FFF7EDBE002281F0010159
:10549C004068FFF7D7BE00231A4619464068FFF74D
:1054AC00C9BE00231A4619464068FFF7BBBE00224E
:1054BC0011464068FFF7AEBE002211464068FFF768
:1054CC0099BE002202214068FFF79CBE00231A46B9
:1054DC004068FFF787BE0000024B03225A60024A65
:1054EC001A60704734E203202C9D0D007047F8B50C
:1054FC00064615460C468F18BC4206D0336814F885
:10550C00011B9B6830469847F6E72846F8BD0022F9
:10551C00007CFFF7D9BC0021007CFFF7DDBC00212B
:10552C00007CFFF7E1BC0021007CFFF7E5BC00210B
:10553C00007CFFF7E9BC10B51421044602F07BF99E
:10554C00204610BD10B50446002363604FF47A73F7
:10555C00A360044B2174084623601146FFF7E4FC5A
:10556C00204610BD609D0D0000231A461946007C94
:10557C00FFF792BC70B50C4686B0142506462A4639
:10558C00002101A802F086FE23788DF808306368AC
:10559C000393E36804930022237A307CADF8045023
:1055AC0001A90593FFF7D8FC06B070BD1FB50033F9
:1055BC008DF800104FF06401039118BF0123694668
:1055CC0001928DF80830FFF7D5FF05B05DF804FBAC
:1055DC000022007CFFF768BCC9B2FFF7F9BF0022BC
:1055EC00007CFFF769BC0021007CFFF795BC08B577
:1055FC000021007CFFF7A0FCB0FA80F0400908BD48
:10560C0008B50021007CFFF79FFCB0FA80F0400940
:10561C0008BD704710B51821044602F00CF920465D
:10562C0010BDF0B5037D062B8DB00E4600F10407BE
:10563C004FF0000402D000F1080518E00CAD39461B
:10564C0005F8304D2F232A460A20FFF78DFC2846FB
:10565C0003F0DCFD33680246DB6829463046984788
:10566C000FE024B12E21304601F0F0FB044415F874
:10567C00011D0A22304601F0F8FBBD420444F0D172
:10568C0020460DB0F0BD000010B5054B04461122AC
:10569C0040F8043B002102F0FDFD204610BD00BF88
:1056AC00889D0D000346074A10B543F8042B01F101
:1056BC00100251F8044B43F8044B9142F9D10A788B
:1056CC001A7010BD889D0D0010B59DF8084044EA75
:1056DC00032343EA024242EA016104234160037559
:1056EC0010BD37B50D788B784A78C978009129466A
:1056FC00FFF7EAFF03B030BD00F11002012312F8EE
:10570C00101C0129104604D152F8041C03EB410370
:10571C0004E0022904BF52F8041C5B18013B02F19F
:10572C001002ECD170470EB42DE9F04187B000AFF8
:10573C0007F13404054654F8046B7C60234632466A
:10574C00102107F10800FFF7D5FD0F2816D900F13D
:10575C00080323F00703E846ADEB030D3246411C6A
:10576C00234668467C60FFF7C5FD021E04DD2B68EE
:10577C0069469B6828469847C54607E030B12B68B8
:10578C0002469B6807F10801284698471C37BD461E
:10579C00BDE8F04103B0704713B502AB026803F8E3
:1057AC00011D946819460122A04702B010BD836800
:1057BC00FBB11A78032A1AD8DFE802F00417021D8D
:1057CC000520704702685B685268D05C2D2814D0A5
:1057DC00A0F13003092B10D9742810D066280ED0F4
:1057EC00A0F16E03584258417047062070470020C4
:1057FC0070471846704704207047032070470220FA
:10580C00704710B50446FFF7D2FF02280DD016D30F
:10581C00042814D82268A36850685B680A22002107
:10582C001844BDE8104003F0BBBD2268A368526861
:10583C005B68D05CA0F174035842584110BD002045
:10584C0010BD10B5436904465BB18068E060013B54
:10585C001030A060206163612BB1FFF74DFFA06099
:10586C0001E0184610BD012010BD10B57D21044685
:10587C00FFF792FF01232371204610BD08B5037971
:10588C00012B02D0022B02D008BD2C2100E03A21C2
:10589C00FFF782FF08BD10B50446FFF7EFFF204667
:1058AC007B21FFF779FF00232371204610BD0000F8
:1058BC0038B504460D46FFF7E1FF23680449DB6861
:1058CC0020462A46984701232371204638BD00BF45
:1058DC00BBA20D0038B504460D46FFF7CFFF236879
:1058EC000449DB6820462A46984701232371204649
:1058FC0038BD00BFE39A0D00F8B50D4617462221BE
:10590C0004462F44FFF748FF2A462946BA4238D0AE
:10591C00164616F8015B222D03D05C2D01D01F2DED
:10592C002DD82368521A9B68204698475C21204644
:10593C00FFF732FF0C2D19D007D8092D0FD00A2DE7
:10594C0012D0082D14D162210AE0222D05D05C2D35
:10595C0003D00D2D0CD1722102E0294600E07421F8
:10596C002046FFF719FF09E06E21F9E76621F7E7FA
:10597C0023680A49DB682A46204698473146324656
:10598C00C4E7914204D02368521A9D682046A84768
:10599C0022212046FFF700FFF8BD00BFB19D0D008E
:1059AC0070B504460D461646FFF768FF2046324692
:1059BC002946FFF7A1FF02232371204670BD70B565
:1059CC0004460D461646FFF759FF20463246294637
:1059DC00FFF792FF01232371204670BD10B5002301
:1059EC000446036043601048A060E360D1B10B78BB
:1059FC00032B06D0B3B9136858684B68C35C6E2B85
:105A0C0008D0136858684B680344A3608B684968D6
:105A1C005B1AE3601146204651F8043B40F8043B06
:105A2C00FFF7A6FC204610BD899E0D00002310B583
:105A3C000446036043608360C3600361436171B1DA
:105A4C000B78012B0BD101F110038360CB68436100
:105A5C00114651F8043B40F8043BFFF789FC204603
:105A6C0010BD002310B5044603604360816031B162
:105A7C00114651F8043B40F8043BFFF779FC2046F3
:105A8C0010BD80680368DB681847704719B10B6854
:105A9C0008465B681847704719B10B6808465B6885
:105AAC001847704770477047704738B504460D4625
:105ABC0000682E2102F07AFE2368C31A2B6023B1F2
:105ACC00037803B1013023682060184638BD10B547
:105ADC000C21044601F0AFFE204610BD10B5042188
:105AEC00044601F0A8FE204610BD10B50421044662
:105AFC0001F0A1FE204610BD38B50C46054601F05C
:105B0C0007FD84420DD001F07BFC844205D101F0ED
:105B1C0077FCBDE8384001F06CBC21462846FFF705
:105B2C00BBFF38BD08B502F04BFEB0FA80F040095F
:105B3C0008BD38B5054608460C4603F067FB214600
:105B4C0002462846BDE83840FFF739BF0068FFF72A
:105B5C0043B970B5044608460D4603F057FB23685D
:105B6C00024629462046DB68BDE87040184713B54D
:105B7C0002AB026803F8011DD46819460122A04744
:105B8C0002B010BD2DE9F04F4568076885B091460D
:105B9C00142255430193AB10194D02925D438B4671
:105BAC003C460123002D039323DD029B6E1003FB67
:105BBC0006F004EB00084A46B8F804A02058D1457A
:105BCC0028BF5246594603F029FB039B48B9D145DF
:105BDC0003D1019A13703546E4E78CBF01200020F5
:105BEC0000E0C00F0028F6D0AE1B08F11404013EF3
:105BFC00F1E7E41B0248A410604305B0BDE8F08F48
:105C0C00CDCCCCCCF0B585B003690191067E13B335
:105C1C0009B304AF002347F8043D00F10C041D4602
:105C2C00394601A8FFF741FF0146A0B104AB039A26
:105C3C0003F8055D2046FFF7A5FF9DF80B3053B127
:105C4C002368142404FB0034083434F9023C002B80
:105C5C00A8BFDEB2E4E7304605B0F0BD10B5094C84
:105C6C002368DB070BD42046FEF71EFA38B120461A
:105C7C00FEF71FFA044A0549054801F0D7FD044810
:105C8C0010BD00BF3CE20320B8E10320B35A0D0065
:105C9C00FCE0032010B5094C2368DB070BD420462D
:105CAC00FEF702FA38B12046FEF703FA044A05491A
:105CBC00054801F0BBFD044810BD00BF6CE2032099
:105CCC00B8E10320B15A0D00F8E0032038B50025E7
:105CDC00044605604560856005614561856140F855
:105CEC00245FFFF769F8FFF7B9FFE061FFF7D2FF18
:105CFC0025732062204638BD10B50A4C2368DB079B
:105D0C000ED42046FEF7D0F950B10748FFF7DEFF5E
:105D1C002046FEF7CEF9054A0549034801F086FDF9
:105D2C00014810BD40E2032044E20320B8E1032007
:105D3C006F610D000023024A02490348FFF7DCB9EA
:105D4C0051600D00E15F0D00695F0D0000231A46E4
:105D5C0019461846FFF7D0B973B502AC8E6851F8E6
:105D6C00043B44F8083D054601A8FFF7EEFA22462D
:105D7C0031462846FFF75AFE01A8FFF7EDFA2846F0
:105D8C0002B070BD73B502AC0E6951F8043B44F817
:105D9C00083D054601A8FFF7D8FA224631462846A9
:105DAC00FFF75FFE01A8FFF7D7FA284602B070BDD7
:105DBC0073B502ACCE6851F8043B44F8083D054677
:105DCC0001A8FFF7C2FA224631462846FFF706FE25
:105DDC0001A8FFF7C1FA284602B070BD30B58BB0F0
:105DEC000D46014604A8FFF7B7FF04A8FFF729FDED
:105DFC00E8B104A96846FFF7DBFF0F490298FFF7EB
:105E0C0091FE044610B12C1C18BF012401A8FFF709
:105E1C00A3FA002CE9D004A96846FFF7B3FF684643
:105E2C00FFF7EFFC286001A8FFF796FADDE705A85D
:105E3C00FFF792FA0BB030BDE89D0D0037B50C465C
:105E4C0020461349154602F0BBFC40B901F060FB3B
:105E5C004FF4165101F050FB01F05AFB15E00D49BF
:105E6C00204602F0ADFC78B902A94FF4165341F864
:105E7C00043D2846FFF7B2FF01F0C2FA019901F088
:105E8C00B5FA01F0BDFA00E0002003B030BD00BF50
:105E9C00ED9D0D00F49D0D0070B50468436814264B
:105EAC00054606FB0346A64205D004F10800FFF7A1
:105EBC00F3FF1434F7E72868FFF7ECF9284670BDB8
:105ECC0070B504684368054604EB0316A64204D07B
:105EDC00204601F056F81034F8E72868FFF7DAF995
:105EEC00284670BD10B504460C30FFF7D5FF204690
:105EFC00FFF7E6FF204610BD10B5044B044640F8F2
:105F0C00043BFFF7EFFF204610BD00BF389A0D0091
:105F1C0010B50446FFF7F0FF2046242101F08BFC5E
:105F2C00204610BD10B5034B03600446FFF7E4FF99
:105F3C00204610BDD89D0D0010B50446FFF7F2FFAA
:105F4C002046242101F077FC204610BD10B50368D3
:105F5C0004461868FEF748FF204610BD2DE9F04FA7
:105F6C009B461B4B5B68C3F3080385B082460E4609
:105F7C00904653BBFFF7C0FE044624300390FFF756
:105F8C00E5FD237BF3B90123237325686368F6B21F
:105F9C0005EB83094D4513D055F8047B4146381D5C
:105FAC00FFF730FE8642F5D33B68CDF800B09B6816
:105FBC009E4638464346324651467746B847E9E74F
:105FCC000023237303A8FFF7C1FF05B0BDE8F08FD2
:105FDC0000ED00E02DE9F74F9946194B5B68C3F3D0
:105FEC00080307468846164633BBFFF785FE044672
:105FFC0024300190FFF7AAFD237BD3B9012323732F
:10600C00256863685FFA86FB05EB830A55450ED05D
:10601C0055F8046B4946301DFFF7F4FD8345F5D365
:10602C0033684246DB68394630469847EEE7002332
:10603C00237301A8FFF78AFF03B0BDE8F08F00BF00
:10604C0000ED00E02DE9F341154B5B68C3F3080349
:10605C0004468846FBB9FFF74FFE064624300190F4
:10606C00FFF774FD96E8A000462605EB8707AF42C4
:10607C0007D101A8FFF76AFFB442B4BF002001208A
:10608C000AE055F8040B41460430FFF7BBFD86428D
:10609C00A8BF0646EBE7002002B0BDE8F08100BFC8
:1060AC0000ED00E070B503684268044603EB820221
:1060BC009A4218460ED006680D68AE4203F10403EE
:1060CC00F6D1011D521A02F0CAF86368013B6360F5
:1060DC00012070BD002070BD1FB504462430019115
:1060EC000390FFF733FD01A92046FFF7DBFF20B932
:1060FC0003A8FFF72BFF04B010BD6368002BF7D18A
:10610C00FFF724FEF4E770B50569436918260446C9
:10611C0006FB0356AE4215D005F110012046FFF7E1
:10612C00C1FF63680BB9FFF711FEE06929690368C9
:10613C00DB689847696919B1206A0368DB6898477E
:10614C001835E7E725696369182606FB0356B5423F
:10615C0004D0284600F015FF1835F8E700236361DA
:10616C0070BD73B5044602ADFFF7F0FD04F12400D9
:10617C0045F8040DFFF7EAFC2046FFF7C4FF28465C
:10618C00FFF7E4FE606A08B1FEF71EFE256963693D
:10619C00182606FB0356B54204D0284600F0F1FE43
:1061AC001835F8E72069FFF775F82068FFF772F8E3
:1061BC00204602B070BD03680A6802600B60436839
:1061CC004A6842604B6083688A6882608B60704763
:1061DC0010B500230446036043608360FFF7EBFFB8
:1061EC00204610BD8842F8B50446164625D9904283
:1061FC0024D2551A143D2C44A1F11407A2F10C051C
:10620C000026A5F108039F4237D084B155F8083C0D
:10621C00236035F8043CA38035F9023CE380A6608A
:10622C00E6602661294604F10800FFF7C4FF284602
:10623C00FFF732FE143C143DE3E71ED001F10805D4
:10624C000027A5F108039E4217D084B155F8083CED
:10625C00236035F8043CA38035F9023CE380A76049
:10626C00E7602761294604F10800FFF7A4FF2846E0
:10627C00FFF712FE14341435E3E7F8BDF8B54568A2
:10628C0083689D4204460E4617460EDB0135002DF1
:10629C0005DDA9000068FFF705F820B9F8BD006816
:1062AC00FEF7F8FF00202060A5602568626805EB0A
:1062BC00860105EB8202521A081D01F0D0FF45F849
:1062CC0026706368013363600120F8BD37B504465E
:1062DC0024300D460190FFF739FC2368616803EB0D
:1062EC00810083421A4609D01268AA4203F10403C2
:1062FC00F7D101A8FFF72AFE00250EE02A4620461A
:10630C00FFF7BCFF05460028F3D06368012B01D1D1
:10631C00FFF710FD01A8FFF719FE284603B030BDAA
:10632C008842F8B506460C46154614D9904213D24D
:10633C00A2F110056C1AA1F110070444AF4218D059
:10634C001CB12946204600F00CFE284600F019FE30
:10635C00103D103CF2E70CD0AC420AD01EB12146E5
:10636C00304600F0FEFD204600F00BFE10341036D7
:10637C00F2E7F8BD70B50E1E05460BDD3001FEF7D9
:10638C0081FF044670B195E8060001EB0212FFF79D
:10639C00C7FF00E000242868FEF77CFF2C60AE608D
:1063AC00012070BD70BD2DE9F04F002395B09246D1
:1063BC004622036043608360C360036143610276DD
:1063CC000291DAF8041008939942054609930A934E
:1063DC0040F39D8008A8FFF7CDFF002840F0978080
:1063EC008EE021460BA800F0BCFD0BA90FA8099E5E
:1063FC0000F0B7FD09990A9B9942C0F2CE80013199
:10640C0008A8FFF7B7FF002840F0C7800FA800F0DE
:10641C00B8FD0BA800F0B5FD1434A742E1D100265D
:10642C000B960C960D96B146099B9E4280F2A88065
:10643C003301089AD3580693002B00F09F80142345
:10644C007343CDF81C9001930BAC07A906A8FFF77A
:10645C002CFB0746002800F0918014AB014603F892
:10646C00399D079A2046FFF78DFB9DF81780009009
:10647C00B8F1000F53D1BDF81C30ADF840304FF6D9
:10648C00FF730F97ADF84230CDF84480CDF84880BB
:10649C00CDF84C806768A3689F424FDA009BD4F814
:1064AC0000B06168142253430BEB030702FB01B2EB
:1064BC0007F1140039460393FFF794FEA7B1039B31
:1064CC000F9A4BF80320BDF84030BB80BDF9423029
:1064DC00FB80C7F80890C7F80C90C7F8109011A96A
:1064EC0007F10800FFF767FE63680133636011A8CA
:1064FC00FFF7D2FCB8F1000F11D00BA8FFF7CCFCC2
:10650C0008A8FFF7DDFC284615B0BDE8F08FDAF8D7
:10651C000040DAF80430142707FB03477DE72368B3
:10652C00009A142404FB0234069B1B7823BBDAF874
:10653C000030019A13441B7CE3801DE00137002FCF
:10654C000FDD142303FB07F00393FEF79BFE83463A
:10655C0078B194E80600039B03FB0212FFF742FE9E
:10656C0000E0C3462068FEF795FEC4F800B0A760B3
:10657C0094E74FF00108BAE7083466E7013653E7B1
:10658C0008A92846FFF717FE0BA905F10C00FFF729
:10659C0012FE9DF808302B76AFE7089B099A03EBA7
:1065AC00061603EB0212314606F11000FFF7B8FE97
:1065BC001EB10FA9304600F0D4FC099B013309939E
:1065CC0024E700007FB50446094B44F8043B05461C
:1065DC000E4601A81146FDF71CFF01AA31462046C4
:1065EC00FFF7E1FE01A8FDF7D3FE284604B070BD0D
:1065FC00389A0D00F0B50F468BB02B49109C3846DD
:10660C0016461D4602F0DCF828BB002C49D0294662
:10661C0001A8FFF7DDFD2549242001F017F90546F7
:10662C00B8B101A904A8FFF7D3FD04A907A8FDF789
:10663C00F0FE07AA31462846FFF7C4FF07A8FDF76E
:10664C00A7FE1B4B2B602C6204A8FDF7A1FE194B77
:10665C002B6001A81FE01849384602F0B1F8F0B9D8
:10666C00FCB1294604A8FFF7B3FD1049242001F022
:10667C00EDF8054670B104A907A8FDF7CAFE07AAF4
:10668C0031462846FFF79EFF07A8FDF781FE084B11
:10669C002B602C6204A8FDF77BFE284602E000204C
:1066AC0000E020460BB0F0BD439E0D000CA00D0089
:1066BC00CC9E0D00D89D0D00479E0D00014B024A4B
:1066CC001A60704770E20320589E0D002DE9F047C8
:1066DC00089DD0F8209004460E461746984600F0C8
:1066EC0017FF814505D15A4800F073FA002840F095
:1066FC00AC802B791B0705D56B69564A206A0021A3
:10670C0000F0D3FBB8F1000F0DD05B212046FFF752
:10671C002EFA41462046FFF71CFA23684E49DB68E7
:10672C000222204698472B79D90725D5D5F8088021
:10673C002F21404602F09AFD08B100F101084146B4
:10674C002046FFF706FA2B799A0709D53A212046FD
:10675C00FFF70DFAEB68414A206A002100F0A5FB17
:10676C002B7913F0040F236818BF3D49DB6808BF71
:10677C003C490222204698472B795B0718D529699A
:10678C000A46134613F8010B38B1202801D11946DB
:10679C0001E0282801D01A46F3E72368521ADB6877
:1067AC002046984723683049DB68042220469847E6
:1067BC0000213846FEF798FC01462046FFF7C9F940
:1067CC0023682849DB680222204698471EB13146CF
:1067DC002046FFF7BEF92B7913F0300F2DD023682C
:1067EC002249DB682046022298472B79D8060BD524
:1067FC0023681F49DB68072220469847AB691D4A6E
:10680C00206A002100F051FB2B79990611D5DA068C
:10681C0005D523681249DB68022220469847236875
:10682C001549DB6820460A229847E9692046FFF79C
:10683C0090F95D212046FFF79AF923680F49DB6830
:10684C0020460222BDE8F0471847BDE8F08700BF9C
:10685C0048E403205C9E0D00639E0D00BBA20D005E
:10686C00669E0D006B9E0D00699E0D006E9E0D00C8
:10687C00719E0D00799E0D007C9E0D00879E0D0073
:10688C002DE9F04385B0D0F820800C9C06460F46CD
:10689C0091461D4600F03CFE804505D14A4800F06B
:1068AC0098F9002840F08C80336A484A01924FF0E6
:1068BC00000801A803938DF80880FEF7ECFF414611
:1068CC004846FEF711FC42498046012201A8FFF719
:1068DC0067F84146FFF72DF93FB13E49012201A867
:1068EC00FFF75EF83946FFF724F93DB13A4901222A
:1068FC0001A8FFF755F82946FFF71BF92379DF07A5
:10690C000ED5A5682F21284602F0B0FC00B1451C1D
:10691C003249012201A8FFF743F82946FFF709F98C
:10692C0023799D0707D52E49022201A8FFF738F8D5
:10693C00E168FEF7BDFF2379580716D525692F4668
:10694C003B4613F8012B3AB1202A01D11D4601E038
:10695C00282A01D01F46F3E70222224901A8FFF79B
:10696C001FF87A1B2946FFF72AF82379190707D550
:10697C001D49012201A8FFF713F86169FEF7AAFF70
:10698C002379DA0608D5042218490DEB0200FFF72B
:10699C0007F8A169FEF78CFF23799B0607D51449EC
:1069AC00062201A8FEF7FCFFE169FFF7C2F801A877
:1069BC00FEF75BFF306A0F4903680222DB689847D9
:1069CC0005B0BDE8F08300BF48E40320C09D0D0076
:1069DC00F29D0D00059E0D001DA30D00249B0D00C6
:1069EC008A9E0D008D9E0D008BA30D00909E0D00B8
:1069FC00959E0D00879E0D00002211464068FEF703
:106A0C0029BC002211464068FEF734BC00224068C5
:106A1C00FEF728BC002281F001014068FEF712BC91
:106A2C0000231A4601214068FEF704BC00231A46D5
:106A3C0019464068FEF7F6BB002211464068FEF787
:106A4C00E9BB002211464068FEF7D4BB00220221AC
:106A5C004068FEF7D7BB00231A464068FEF7C2BB5E
:106A6C0038B5054688B104684CB1A3681BB1032244
:106A7C002146204698471021204600F0DCFE28468F
:106A8C001421BDE8384000F0D6BE38BD10B1036803
:106A9C005B681847704710B503680446BBB158686B
:106AAC00FEF772F978B923685A7C12B95868FEF768
:106ABC0073F923685868FEF777F920680023236080
:106ACC0028B1FFF7CDFF206808B1FFF7C9FF2046BA
:106ADC0010BD38B50446D0F8C40108B1FDF7D7FA9B
:106AEC00D4F8C00108B1FEF76FF9D4F8BC5135B138
:106AFC002846FFF7D0FF0421284600F09CFE2068B2
:106B0C0008B1FFF7C3FF204638BD000010B5044B99
:106B1C00044640F8083BFFF7DCFF204610BD00BFE1
:106B2C00149F0D0038B50E4C0E4B2360002502232C
:106B3C0004F5E4706360A560C4F8C451C4F8C8518E
:106B4C00FEF73AF9084BC4F8CC5184F8D0512360C5
:106B5C002046064A0649BDE8384000F067BE00BF33
:106B6C0074E20320489F0D00149F0D00B8E1032030
:106B7C00196B0D0000231A464068FEF733BB002248
:106B8C0002214068FEF73EBB002211464068FEF72A
:106B9C0031BB002211464068FEF73CBB00231A466D
:106BAC0019464068FEF73EBB00231A46194640685A
:106BBC00FEF740BB002281F001014068FEF742BBAA
:106BCC0000224068FEF74EBB002211464068FEF7DB
:106BDC0051BB002211464068FEF73CBB2DE9F04347
:106BEC00002495B016460D460746FEF74DFD21468E
:106BFC0020220CA8009401F04DFB40230C9321465D
:106C0C006B460CAA3046FEF7BFF90446002844D167
:106C1C00024601216868FEF7FDFA022180462246F1
:106C2C006868FEF7F7FA009E81462146002E34D0A4
:106C3C00002932D17368022B02D00A2B09D02AE02A
:106C4C00B8F1000F27D0716938460431FEF749FDC1
:106C5C0020E0B9F1000F1ED07469112201A801F0D7
:106C6C0019FB06238DF8143001AD04F10803183418
:106C7C00186859682A4603C20833A3421546F7D14F
:106C8C0001A906A807ADFEF70DFD0FCD3C1D0FC4E5
:106C9C002B6823700121F669C8E70098FEF76CF9A0
:106CAC00384615B0BDE8F083024B034A1A60002247
:106CBC005A60704748E40320489F0D0008B500F067
:106CCC008FFDBDE80840FEF792BC10B5044601707C
:106CDC0009B1FFF7F3FF204610BD08B500F080FDA9
:106CEC00BDE80840FEF78CBC10B5037804460BB128
:106CFC00FFF7F3FF204610BD10B504460068FFF700
:106D0C00ECFF204610BD37B502AC0D4644F8040D1F
:106D1C00FFF7D4FF00F064FD6B21FEF75DFC00F083
:106D2C005FFD036829469B68984700F059FD0121D7
:106D3C00FEF755FC00F054FD01231A466B21FEF7BB
:106D4C0035FC00F04DFD03685B699847054620460D
:106D5C00FFF7D2FFE8B203B030BD0021FFF7D3BF7D
:106D6C0008B5FFF7FAFF034B00F0070033F81000EB
:106D7C0008BD00BF749F0D0008B50221FFF7C3FFCB
:106D8C00C0F38700800100F5007008BD0421FFF7F7
:106D9C00BABF10B5FFF7FAFF02234FF45B62102164
:106DAC0040FA03F4013304F00104082B01FB042224
:106DBC004FEA4101F4D190B210BD0721FFF7A3BFF8
:106DCC000821FFF7A0BF0921FFF79DBF37B502AD22
:106DDC00044645F8040DFFF771FF00212046FFF72C
:106DEC0092FFC0F3C7042846FFF786FF04F00F009C
:106DFC0000EB8000000100F6287080B203B030BDBB
:106E0C00F8B506460D468F180024BD420CD03368E9
:106E1C0015F8011B9B6830469847002801DB044499
:106E2C00F3E7002C08BF04462046F8BD70B50546B4
:106E3C000C46084649B102F0E9F92B680246214696
:106E4C002846DB68BDE87040184770BD03689B6836
:106E5C00184738B50D210546FFF7F8FF0A210446FF
:106E6C002846FFF7F3FF204438BD30B58BB00B46F6
:106E7C0000218DF82410012A98BF0A220DF1230459
:106E8C00B3FBF2F505FB123303F0FF03092B94BFA0
:106E9C0030333733DBB2214604F801392B46002D51
:106EAC00EED1FFF7C3FF0BB030BD0CB42DE9F043AE
:106EBC0087B000AF07F13804054654F8049B3C60DA
:106ECC000E4623464A461421381DFEF713FA1328A2
:106EDC0005D8391D2846FFF7A9FF044613E000F139
:106EEC00080323F00703E846ADEB030D411C2346D2
:106EFC004A4668463C60FEF7FDF969462846FFF7AE
:106F0C0095FF0446C5461EB12846FFF7A2FF044470
:106F1C0020461C37BD46BDE8F04302B0704710B5A3
:106F2C000446FEF79BFA204610BD00000348044AB5
:106F3C0004490023836000F079BC00BF50E40320B7
:106F4C00B8E103202B6F0D0010B504460170084604
:106F5C00FEF722F800236360204610BD0078FEF790
:106F6C0023B80023036043608360037310B50C687F
:106F7C0004604C6844608C6884600B604B608B6070
:106F8C0010BD10B504460068FEF784F9204610BD0C
:106F9C0010B50446006808B1FEF77CF900232360A5
:106FAC00A360636010BD38B504460D46006801311E
:106FBC00FEF778F910B184E82100012038BD10B536
:106FCC000368044613B143688B4207D22046FFF78F
:106FDC00EAFF20B1A3680BB922681370012010BD21
:106FEC0070B50E46114604461546FFF7E8FF18B972
:106FFC002046FFF7CDFF09E02A463146A560206800
:10700C0001F022F92268A3680021D154204670BDFA
:10701C0038B50023044603604360836003730D4658
:10702C0039B1084602F0F2F8294602462046FFF72D
:10703C00D7FF204638BD884210B50B46044607D012
:10704C00096819B19A68FFF7CBFF01E0FFF7A0FFC1
:10705C00204610BD10B500230446036043608360D6
:10706C000373FFF7E8FF204610BD10B50446006817
:10707C0018B1FEF70FF90023236010BD10B50446BC
:10708C00FFF7F3FF204610BD10B5094C00204FF65A
:10709C00FF732060A080A07120816381FEF746F809
:1070AC002046044A0449BDE8104000F0BFBB00BFB5
:1070BC0060E40320B8E1032089700D00F0B5144B97
:1070CC00144F1E68144B064418683B6806449E42D5
:1070DC008BB01BD00AA801AD40F8286D00F0BCFFA6
:1070EC00436903F26C73436104460FCC0FC50FCC9C
:1070FC000FC5D4F800E0C5F800E001AD0FCD074C8A
:10710C000FC40FCD0FC43E60C4F800E00BB0F0BD4F
:10711C009CE4032098E4032094E403206CE4032013
:10712C0008B50020FEF746F828B1FEF73BF880F0D2
:10713C000100C0B208BD012008BD08B5FDF77CFEFA
:10714C00002211461046BDE80840FEF707B80000C3
:10715C0037B50E4B1B6819440D4B1B68044602A82F
:10716C00194440F8041D00F077FF00F081FE05463D
:10717C0002F04CF82844002300F8013C2946204634
:10718C00FFF746FF204603B030BD00BF9CE4032050
:10719C0094E403202DE9F047A4B014AC07468946CB
:1071AC00204611463F221D4602F04DF80023204692
:1071BC008DF88F3002F02AF8804625B9244903A8AF
:1071CC0001F008FB13E03C2195FBF1F2002AB8BF5B
:1071DC00524292FBF1F301FB132200924FF46163D4
:1071EC001C4A95FBF3F3102103A8FEF773F8254610
:1071FC002E1B08F1FF3AB2451BD92B78252B16D143
:10720C006B787A2B13D103A802F000F88046304437
:10721C00C6EB0A02A91C204401F016F8424603A949
:10722C00284601F011F8204601F0F0FF80460135A8
:10723C00DEE74B462246322107A801F033FB07A9B3
:10724C003846FFF7E5FE384624B0BDE8F08700BFAE
:10725C0015A50D00849F0D00F7B5054601921C463F
:10726C0013B9124B1C682CB1114B2046196801F054
:10727C00A7FA20B901992846FFF76AFF13E00D4FD2
:10728C00019A3B680C4E1A44336802A8134440F828
:10729C00043D00F0E1FE3A68336801461344284689
:1072AC002246FFF777FF284603B0F0BD90E4032099
:1072BC0000E103209CE4032094E4032010B500209B
:1072CC00FDF7C2FD044668B9FDF728FF01280BD174
:1072DC002046FDF73BFF38B9FFF722FF30B9FDF729
:1072EC0059FFF9E7012010BD002010BDFFF718FF72
:1072FC000020FDF7A9FD003018BF012010BD08B516
:10730C00FFF7DCFFBDE80840FDF78EBD08B5FFF7C1
:10731C00F6FFFFF7D3FE014B586908BD6CE4032060
:10732C00024B1A68024B1A60704700BF00E1032041
:10733C0090E4032070474174704708B5007CFDF75A
:10734C007BFE20EAE07008BD08B5007CFDF74CFE22
:10735C0020EAE07008BD08B5007CFDF755FE30EA68
:10736C00200028BF4FF0FF3008BD08B5007CFDF7AA
:10737C0043FE30EA200028BF4FF0FF3008BD007CF0
:10738C00FDF74ABE10B51421044600F054FA20460D
:10739C0010BD70B5457C04460E4625B9007CFDF742
:1073AC004BFE002805DD3146207CBDE87040FDF722
:1073BC0013BE284670BD000010B5044608461146A1
:1073CC00002262604FF47A72A260054A22600122A8
:1073DC00207462741A46FDF7EFFD204610BD00BF05
:1073EC00B49F0D000023007CFDF72EBE0022FFF79A
:1073FC00F9BF007CFDF7E8BD007CFDF715BE000071
:10740C0038B50C4D296811F0010411D12846FCF750
:10741C004BFE68B1084A094B09482146FFF7CCFFDF
:10742C002846FCF746FE074A0749054800F0FEF9D6
:10743C00034838BD3CE5032040E50320B8E40320B5
:10744C00A4E40320B8E1032041730D00417470479C
:10745C00704708B50021007CFDF71EFE30EA2000C5
:10746C0028BF4FF0FF3008BD08B50121007CFDF7A7
:10747C0013FE30EA200028BF4FF0FF3008BD08B5DE
:10748C00007CFDF701FE20EAE07008BD08B5007C29
:10749C00FDF7F2FD20EAE07008BD007CFDF70CBEA4
:1074AC0010B51421044600F0C6F9204610BD38B5BD
:1074BC000446007C0D46FDF7E7FD002801DC607CEE
:1074CC0028B12946207CFDF7EFFD20EAE07038BD9D
:1074DC0010B50446002363604FF47A73A360054B28
:1074EC00236001230846217463741146FDF7B4FD33
:1074FC00204610BDE49F0D000022007CFDF7B4BDBA
:10750C0010B514220446002100F0C4FE204610BD24
:10751C0030B50E4D87B001A8FFF7F2FF296811F0C6
:10752C00010410D12846FCF7BFFD60B101AA214629
:10753C000748FFF7CDFF2846FCF7BBFD054A064977
:10754C00034800F073F9024807B030BDC4E50320CE
:10755C00C8E50320B8E103205D740D0008B50C4BA1
:10756C0033B1FFF7D5FF03681B699847002809DC86
:10757C00084B63B1FFF744FF03681B699847002869
:10758C0003DC08BDAFF30080F2E7AFF3008008BD69
:10759C00000000000000000008B5FFF7DFFFFDF75A
:1075AC003BFC014B186008BDF0E503200248034A80
:1075BC000349121A00F048BE00F4032004F403201F
:1075CC0090A50D0007B5002300931A466FF07701C4
:1075DC00FDF7D6FD03B05DF804FB000007B543884A
:1075EC000A2B08D0502B09D1094B1B683BB103B0B7
:1075FC005DF804EB1847FFF7E5FF06E00023009366
:10760C001A466FF07701FDF7BBFD03B05DF804FB84
:10761C00DCE5032038B5104C104D2368AB42104B01
:10762C000CBF012200221A7002D0FFF7BFFF2560A9
:10763C00FDF7E2FB044601F083F80A4B13B1204638
:10764C00AFF3008000210748FDF7C4FD0021064878
:10765C00BDE83840FDF78ABD00F403201E1C279AB4
:10766C00E0E5032000000000E9750D0070B5184E30
:10767C00316811F0010504460AD13046FCF714FDBF
:10768C0030B129461348FFF75FFC3046FCF711FD7B
:10769C001048FFF763FC28B1A4F10B03022B01D8AF
:1076AC00002070BD00F076F8FDF79DFF08B1012CAD
:1076BC00F6D9FFF7A5FEFFF79FFE18B1A4F1090359
:1076CC00012BEDD9232C8CBF0020012070BD00BFF5
:1076DC00E4E50320E8E50320232838B504460D46ED
:1076EC000AD8FF2908D0FFF7C1FF28B12946204648
:1076FC00BDE83840FDF7B8BB38BD38B504460D467B
:10770C00FDF7BAFBFF2810D0062804D84D2323FA26
:10771C0000F0C30709D42046FFF7A8FF28B129467B
:10772C002046BDE83840FDF7AFBB38BD70B5044608
:10773C0014252A46094E002100F0ACFD2580202599
:10774C003146A5602561284600F08FF8314660600F
:10775C00284600F08AF8E060204670BD0CA00D00B1
:10776C0070B5044614252A46094E002100F092FDFE
:10777C00258020253146A5602561284600F075F846
:10778C0031466060284600F070F8E060204670BD1D
:10779C000CA00D0030B50E4D296811F0010487B016
:1077AC0013D12846FCF780FC78B101A8FFF7BEFF87
:1077BC0001AA21460748FDF7C5FE2846FCF779FCCF
:1077CC00054A0649034800F031F8024807B030BDBD
:1077DC00F4E503200CE60320B8E10320F9540D0076
:1077EC0010B50E4C2368DB0786B013D42046FCF78B
:1077FC005BFC78B101A8FFF7B3FF01AA012108488F
:10780C00FDF7A0FE2046FCF754FC064A0649044846
:10781C0000F00CF8024806B010BD00BF20E60320B3
:10782C00F8E50320B8E10320F9540D000B4601469E
:10783C00184600F059BBFCF728BC0000024B186836
:10784C00BFF35F8F704700BF24E6032010B50028FC
:10785C0014BF044601242046FDF714FD20B9FFF7A0
:10786C00EDFF08B18047F6E710BDFFF7EFBF000052
:10787C00244B1A68D0075CBF01221A60224B1A688D
:10788C00D1075CBF01221A60204B1A68D2075CBF7B
:10789C0001221A601E4B1A68D0075CBF01221A60C5
:1078AC001C4B1A68D1075CBF01221A601A4B1A686C
:1078BC00D2075CBF01221A60184B1A68D0075CBF54
:1078CC0001221A60164B1A68D1075CBF01221A609C
:1078DC00144B1A68D2075CBF01221A60124B1A684B
:1078EC00D0075CBF01221A60104B1A68D1075CBF2D
:1078FC0001221A600E4B1A68D2075CBF01221A6073
:10790C00704700BF54E6032050E603204CE60320EA
:10791C0048E6032044E6032040E603203CE603202F
:10792C0038E6032034E6032030E603202CE603205F
:10793C0028E60320184B1A68D1075CBF01221A6095
:10794C00164B1A68D2075CBF01221A60144B1A68D6
:10795C00D0075CBF01221A60124B1A68D1075CBFBA
:10796C0001221A60104B1A68D2075CBF01221A6000
:10797C000E4B1A68D0075CBF01221A600C4B1A68B8
:10798C00D1075CBF01221A600A4B1A68D2075CBF90
:10799C0001221A60704700BF74E6032070E60320D2
:1079AC006CE6032068E6032064E6032060E603200F
:1079BC005CE6032058E60320184B1A68D1075CBF1D
:1079CC0001221A60164B1A68D2075CBF01221A609A
:1079DC00144B1A68D0075CBF01221A60124B1A684C
:1079EC00D1075CBF01221A60104B1A68D2075CBF2A
:1079FC0001221A600E4B1A68D0075CBF01221A6074
:107A0C000C4B1A68D1075CBF01221A600A4B1A682A
:107A1C00D2075CBF01221A60704700BF94E60320B6
:107A2C0090E603208CE6032088E6032084E60320FE
:107A3C0080E603207CE6032078E60320244B1A68BA
:107A4C00D0075CBF01221A60224B1A68D1075CBFB9
:107A5C0001221A60204B1A68D2075CBF01221A60FF
:107A6C001E4B1A68D0075CBF01221A601C4B1A68A7
:107A7C00D1075CBF01221A601A4B1A68D2075CBF8F
:107A8C0001221A60184B1A68D0075CBF01221A60D9
:107A9C00164B1A68D1075CBF01221A60144B1A6886
:107AAC00D2075CBF01221A60124B1A68D0075CBF68
:107ABC0001221A60104B1A68D1075CBF01221A60B0
:107ACC000E4B1A68D2075CBF01221A60704700BFC8
:107ADC00C4E60320C0E60320BCE60320B8E603207E
:107AEC00B4E60320B0E60320ACE60320A8E60320AE
:107AFC00A4E60320A0E603209CE6032098E60320DE
:107B0C0081F0004102E000BF83F0004330B54FEA42
:107B1C0041044FEA430594EA050F08BF90EA020FAF
:107B2C001FBF54EA000C55EA020C7FEA645C7FEA42
:107B3C00655C00F0E2804FEA5454D4EB5555B8BF65
:107B4C006D420CDD2C4480EA020281EA030382EAD6
:107B5C00000083EA010180EA020281EA0303362D68
:107B6C0088BF30BD11F0004F4FEA01314FF4801C3B
:107B7C004CEA113102D0404261EB410113F0004F4D
:107B8C004FEA03334CEA133302D0524263EB430304
:107B9C0094EA050F00F0A780A4F10104D5F1200EA2
:107BAC000DDB02FA0EFC22FA05F2801841F10001FD
:107BBC0003FA0EF2801843FA05F359410EE0A5F1D1
:107BCC0020050EF1200E012A03FA0EFC28BF4CF002
:107BDC00020C43FA05F3C01851EBE37101F00045B8
:107BEC0007D54FF0000EDCF1000C7EEB00006EEBC5
:107BFC000101B1F5801F1BD3B1F5001F0CD349084F
:107C0C005FEA30004FEA3C0C04F101044FEA4452A5
:107C1C0012F5800F80F09A80BCF1004F08BF5FEA2C
:107C2C00500C50F1000041EB045141EA050130BD0C
:107C3C005FEA4C0C404141EB010111F4801FA4F1AF
:107C4C000104E9D191F0000F04BF01460020B1FA04
:107C5C0081F308BF2033A3F10B03B3F120020CDA3C
:107C6C000C3208DD02F1140CC2F10C0201FA0CF01A
:107C7C0021FA02F10CE002F11402D8BFC2F1200C7F
:107C8C0001FA02F120FA0CFCDCBF41EA0C01904035
:107C9C00E41AA2BF01EB0451294330BD6FEA04047E
:107CAC001F3C1CDA0C340EDC04F11404C4F1200269
:107CBC0020FA04F001FA02F340EA030021FA04F37B
:107CCC0045EA030130BDC4F10C04C4F1200220FAD2
:107CDC0002F001FA04F340EA0300294630BD21FA10
:107CEC0004F0294630BD94F0000F83F4801306BFD6
:107CFC0081F480110134013D4EE77FEA645C18BFCA
:107D0C007FEA655C29D094EA050F08BF90EA020F60
:107D1C0005D054EA000C04BF1946104630BD91EA58
:107D2C00030F1EBF0021002030BD5FEA545C05D15B
:107D3C004000494128BF41F0004130BD14F580049A
:107D4C003CBF01F5801130BD01F0004545F0FE410E
:107D5C0041F470014FF0000030BD7FEA645C1ABF43
:107D6C00194610467FEA655C1CBF0B46024650EA7A
:107D7C00013406BF52EA033591EA030F41F40021A6
:107D8C0030BD00BF90F0000F04BF0021704730B52C
:107D9C004FF4806404F132044FF000054FF0000101
:107DAC0050E700BF90F0000F04BF0021704730B5C2
:107DBC004FF4806404F1320410F0004548BF404297
:107DCC004FF000013EE700BF42004FEAE2014FEAEC
:107DDC0031014FEA02701FBF12F07F4393F07F4FC7
:107DEC0081F06051704792F0000F14BF93F07F4FF9
:107DFC00704730B54FF4607401F0004521F000413C
:107E0C0020E700BF50EA010208BF704730B54FF0C1
:107E1C0000050AE050EA010208BF704730B511F0C6
:107E2C00004502D5404261EB41014FF4806404F1FE
:107E3C0032045FEA915C3FF4DCAE4FF003025FEA80
:107E4C00DC0C18BF03325FEADC0C18BF033202EB08
:107E5C00DC02C2F1200300FA03FC20FA02F001FA62
:107E6C0003FE40EA0E0021FA02F11444C1E600BF01
:107E7C00094B70B51C68256C06463DB91A20FDF7F8
:107E8C0001FA1A222064294600F004FA216C3046CB
:107E9C00BDE8704000F002B868E1032010B50C4654
:107EAC0041690369826986B001F26C7104910168C1
:107EBC0003914168029181680191C1680091074961
:107ECC0003EB43030B44064902EB42020A442046EF
:107EDC000449FDF7EFF9204606B010BD22A00D00B5
:107EEC000DA00D0046A00D0010B5054C13462CB18D
:107EFC000A4601460220AFF3008010BD204610BD9B
:107F0C000000000038B5074B1C68E36B05461BB935
:107F1C002420FDF7B7F9E063E16B2846BDE8384053
:107F2C0000F002B868E103200268474BF0B592FB01
:107F3C00F3F403FB1422002ABCBF02F5A83202F5AD
:107F4C00C0724FF4616004F52F2492FBF0F300FB38
:107F5C0013224FF03C00ACBF04F66C2404F66B24E7
:107F6C008B6092FBF0F300FB13224B600A6007233B
:107F7C00E21C92FBF3F3C3EBC303D31A8B61334BB9
:107F8C00334D94FBF5F503FB054448F6AC62B4FBAA
:107F9C00F2F2224440F2B457B4FBF7F3D21A2D4854
:107FAC00B4FBF0F048F69466131AB3FBF6F63444BF
:107FBC0040F26D12B3FBF2F0B3FBF7F3E31A02FBE2
:107FCC001033992403EB83020232B2FBF4F20A2A37
:107FDC0004FB02F404F102064FF00504B6FBF4F4C2
:107FEC0034BF02266FF0090616444FF4C87202FB28
:107FFC0005055F1C012E98BF0135B3F5997FA7EBE2
:10800C00040702D3A3F5997214E0820705D1642406
:10801C00B0FBF4F204FB12024AB94FF4C872B0FB85
:10802C00F2F402FB1400B0FA80F2520900E00122D3
:10803C003B331A44A5F26C750023CA614D610E6185
:10804C00CF600B620846F0BD805101004FC5FDFFAB
:10805C00B13A0200B03A020038B5074B1C68E36B2A
:10806C0005461BB92420FDF70DF9E063E16B2846AA
:10807C00BDE8384000F002B868E103202DE9F0417A
:10808C000C46804601F0BAFC214607464046FFF7F5
:10809C004BFF466906F26C76B307044605D16422A1
:1080AC0096FBF2F302FB13634BB94FF4C87596FBC6
:1080BC00F5F305FB1365B5FA85F35B0900E00123C5
:1080CC005F4A302505FB032501F0B4FA01F0B4FA40
:1080DC005C4B1B68F3B17B689E4205D13968D8F8BC
:1080EC000030FA6941B90AE0304601F0FBF900288A
:1080FC00F4D14FF0FF330DE0934208DB01E09342E3
:10810C0007DABA6B9342ACBF0023012302E00023D1
:10811C0000E001232362236A012B0CBFF96B396A3F
:10812C004FF461633C2091FBF3F603FB161361687B
:10813C0093FBF0F200FB12302368891AA26861608D
:10814C001B1A921B3B2B2360A26003DD0131616083
:10815C003C3B04E0002B03DA013961603C332360C3
:10816C0063683B2B03DD0132A2603C3B04E0002B37
:10817C0003DA013AA2603C336360A368172B22DD5B
:10818C00E2690132E261A2690132062AC8BF00220B
:10819C00A261E268183B0132A3602369E26055F8E2
:1081AC0023108A4246DD01330C2B0CBF636923611B
:1081BC00A2EB0102E26001BF013300222261636184
:1081CC0008BFE26136E0002B34DAE269013AE26181
:1081DC00A269013A48BF0622A261E2681833013A4B
:1081EC00E260A36032BB2369013B01D423611DE033
:1081FC000B23236163695A1E12F0030F626103F2B1
:10820C006B7305D1642193FBF1F201FB12324AB975
:10821C004FF4C87193FBF1F201FB1233B3FA83F301
:10822C005B0900E0012303F5B673E361236955F89C
:10823C002330E36001F0FFF92046BDE8F08100BF78
:10824C002CA20D00E4E7032010B5431E0A44914212
:10825C0004D011F8014B03F8014FF8E710BD884228
:10826C0010B501EB020301D8421E0BE09842FBD281
:10827C008118D21AD34204D013F8014D01F8014DE4
:10828C00F8E710BD994204D011F8014B02F8014FE8
:10829C00F8E710BD02440346934202D003F8011BD9
:1082AC00FAE77047F7B501683B29044611D93C221F
:1082BC00684601F04BFB019A63680099002A0B4455
:1082CC006360BBBF3C3203F1FF3322602260B8BF56
:1082DC00636061683B2911D93C22684601F036FB8A
:1082EC00019AA168009B002A0B44A360BBBF3C32DF
:1082FC0003F1FF3362606260B8BFA360A168172905
:10830C0011D91822684601F021FB019AE168009B03
:10831C00002A0B44E360BBBF183203F1FF33A260A9
:10832C00A260B8BFE36021690B2911D90C22684601
:10833C0001F00CFB019A6169009B002A0B446361FC
:10834C00BBBF0C3203F1FF3322612261B8BF636102
:10835C006369990712D1642193FBF1F201FB12328C
:10836C0072B903F26C734FF4C87193FBF1F201FB19
:10837C001233002B14BF1C231D2302E01C2300E02E
:10838C001D23E268002A06DD334F4FF0000E6425F2
:10839C004FF4C87639E0304F0B2664204FF4C87583
:1083AC00D4F80CE0BEF1000F53DC216901392161D6
:1083BC00013118D163692661591E8A0761610FD199
:1083CC0091FBF0F200FB121161B903F26B7393FB9A
:1083DC00F5F205FB1233002B14BF1C231D2302E006
:1083EC001C2300E01D232269012A14BF57F8222008
:1083FC001A467244E260D3E78B422ADA18460132FD
:10840C00091A0C2AE160226108D02269E168012A6C
:10841C00F2D057F822008142F1DC1AE06369C4F80B
:10842C0010E05A1C910762610FD192FBF5F105FB2C
:10843C00112262B903F26D7393FBF6F206FB123351
:10844C00002B14BF1C231D23DFE71C23DDE71D239A
:10845C00DBE703B0F0BD00BFFCA10D002DE9F04738
:10846C00054601F0CBFA81462846FFF71BFF95E83D
:10847C000C003C2101FB0323AA68EC684FF46168F3
:10848C0008FB02312B69AB4A52F82320013C012B2B
:10849C0014446B6911DD9E070FD1642093FBF0F23D
:1084AC0000FB123242B903F26C764FF4C87296FBA1
:1084BC00F2F002FB106202B9013403F51C521032C7
:1084CC0044F620608242EC611F4600F22E81462B5E
:1084DC0022DD462240F26D1C64264FF4C87E9007C4
:1084EC0010D192FBF6F006FB102070B902F26C78FA
:1084FC0098FBFEF00EFB1080002814BF60464FF472
:10850C00B77004E040F26D1001E04FF4B770013227
:10851C0093420444E3D144E043D0452240F26D1E23
:10852C0064264FF4C8779A421ADD900710D192FB5B
:10853C00F6F006FB102070B902F26C7C9CFBF7F095
:10854C0007FB10C0002814BF70464FF4B77004E04E
:10855C0040F26D1001E04FF4B770241A013AE2E7D3
:10856C00452BA8BF45239E071F4614D1642293FBBD
:10857C00F2F302FB13738BB907F26C704FF4C873F0
:10858C0090FBF3F203FB1203002B40F26D1308BFB8
:10859C004FF4B77304E040F26D1301E04FF4B7737E
:1085AC00E41A654800FB041801F044F801F044F8A3
:1085BC00624B1E68002E00F0A4802B6A6869012BA8
:1085CC00A8BF01239A46D9F8043000F26C70984287
:1085DC000DD1D9F83820D9F82030D9F83C00D9F889
:1085EC001C10D61AB045A1EB000105DA07E000F02B
:1085FC0079FF0028EDD176E0121A904573DBD9F89B
:10860C00002012B1884577DB01E0884507DAB045D8
:10861C00ACBF00260126BAF1000F04DA64E0BAF10F
:10862C00000F63DB01268AEA060ABAF1010F5BD15F
:10863C001B1A06B95B422A68D5F80CA01A442A60AA
:10864C0028469844FFF72EFEEB68B3EB0A034BD099
:10865C00012B03DC981CD8BF012301E04FF0FF3342
:10866C00EA691C449B181DD57B1E990714D1642103
:10867C0093FBF1F201FB12338BB907F26B774FF4DA
:10868C00C87297FBF2F302FB1377002F40F26D13C5
:10869C0018BF4FF4B67324E04FF4B67321E040F2E8
:1086AC006D131EE0BA0714D1642197FBF1F201FBA4
:1086BC0012728AB907F26C774FF4C87197FBF1F21A
:1086CC0001FB1277002F40F26D1208BF4FF4B77206
:1086DC0004E040F26D1201E04FF4B7729A42D8BF39
:1086EC009B1AEB6100E05646012E0AD1D9F83C00EA
:1086FC00012608EB000708E0BAF1000F4FF0000666
:10870C0091DAD9F8200008EB000700F094FF04344C
:10871C00072394FBF3F3C3EBC303E41A48BF0734FA
:10872C002E62AC613846BDE8F0874FF0FF30BDE8F3
:10873C00F08700BFCCA10D0080510100E4E70320BD
:10874C0038B5124B1C68A36B0546D3B91820FCF73F
:10875C0099FD43F20E33A06303804AF6CD33438078
:10876C0041F2342383804EF26D63C3804DF6EC638B
:10877C000381052343810B23838101220023C0E95C
:10878C000423A36B00221D615A6138BD68E10320EC
:10879C00C9B2034610F8012B1AB19142F9D118460F
:1087AC00704700290CBF18460020704710B50446CE
:1087BC00FFF7EEFF18B9204600F028FD204410BD4D
:1087CC0010F8012B11F8013B012A28BF9A42F7D06F
:1087DC00D01A7047034611F8012B03F8012B002A1D
:1087EC00F9D1704741698B0710B50CD1002940F2C3
:1087FC006C73A8BF6FF063030B44642493FBF4F217
:10880C0004FB123383B9002940F26C73A8BF6FF0DC
:10881C0063034FF4C8720B4493FBF2F102FB113368
:10882C00B3FA83F2520900E001228369C1695B004B
:10883C0003EB01131344212B0EDC202B2FDA0D2B11
:10884C0002DC0A2B05DB2AE0102B26DB112B26DDA4
:10885C001C3B012B23D920E041F2C66293420EDC73
:10886C0041F2C262934216DA41F2A262934212D0F2
:10887C0013DBA3F5B553123B022B0CD90DE041F2DF
:10888C00D562934207D041F2D762934203D041F2B2
:10889C00D362934201D1012010BD002010BD4FF0D6
:1088AC00FF3010BD2DE9F04F93B00E461D46074624
:1088BC00914600F007FE002306931C46731E03909E
:1088CC00029399F80030002B00F09284252B08D0ED
:1088DC00029A944280F090843B5509F101090134CD
:1088EC00EFE799F801A0BAF1300F07D0BAF12B0FCE
:1088FC0004D009F101094FF0000A01E009F1020965
:10890C0099F80030313B082B08D848460A220AA9AE
:10891C0000F0CEFDDDF82890804601E04FF0000815
:10892C0099F80030452B01D04F2B01D109F10109E9
:10893C0099F80000A0F12503552B00F25D84DFE8C7
:10894C0013F04A045B045B045B045B045B045B0490
:10895C005B045B045B045B045B045B045B045B0413
:10896C005B045B045B045B045B045B045B045B0403
:10897C005B045B045B045B045B046F00A100D4002C
:10898C001A015B043F01A00126022D025B045B046B
:10899C005B0460025B045B0468025B0497021D03CA
:1089AC0025033B0343038603C600A0031F045B049B
:1089BC005B045B045B045B045B0456008900BA0037
:1089CC000C010C015B04710189005B043D02260261
:1089DC002D025D0262025B0468025B04BE009C0215
:1089EC001F032E035B047F03C2009203E703AB69F2
:1089FC00039A183352F82380404600F007FC08F124
:108A0C00FF383B192044844200F0EB83029A9442D5
:108A1C0080F0F28318F8012F03F8012B0134F2E7F0
:108A2C00AB69039A02EB8303D3F87C80404600F0D9
:108A3C00EDFB08F1FF383B192044844200F0D18350
:108A4C00029A944280F0D88318F8012F03F8012B76
:108A5C000134F2E72B69039A52F82380404600F068
:108A6C00D5FB08F1FF383B192044844200F0B98350
:108A7C00029A944280F0C08318F8012F03F8012B5E
:108A8C000134F2E72B69039A0C3352F823804046E9
:108A9C0000F0BCFB08F1FF383B192044844200F085
:108AAC00A083029A944280F0A78318F8012F03F850
:108ABC00012B0134F2E7039BD3F8A0800AE0039B5F
:108ACC00D3F8E48006E0039BD3F89C8002E0039B80
:108ADC00D3F89880404600F099FB98F80030002BB2
:108AEC0000F07F832B46424693E0B649D5F814B08C
:108AFC008B45ACBF00210121BBF1000F04DB6420CE
:108B0C009BFBF0F0133008E00BF26C70079100F057
:108B1C0019FF0799642390FBF3F0BAF1000F08D00A
:108B2C00632809DDA84BA94ABAF12B0F18BF1346CD
:108B3C0003E0A64BA64A01E0A44BA64A0190B8F16B
:108B4C00010F98BF4FF00208C1EB080100919D483E
:108B5C00A1498345B8BF0B461EE2A04AA049EB6869
:108B6C00642808BF0A46311B3819FCF7BBFB0028E8
:108B7C0080F2028340E368692B69002803F1010B42
:108B8C0007EB0408C4EB060AEB6805DB642290FBD8
:108B9C00F2F102FB11000AE000F26C70079300F096
:108BAC00D1FE6422079B90FBF2F101FB12008D4A6F
:108BBC000190009351465B464046FCF793FBD6E789
:108BCC0025238DF82830BAF1000F07D0B8F1050F26
:108BDC008DF829A098BF4FF0060804E02B238DF8E0
:108BEC0029304FF00A08B8F1060302D10DF12A0022
:108BFC000AE07D4A1E210DF12A00FCF773FB0028C8
:108C0C00F4DD0DF12A0318447849FFF7E3FD2B46F8
:108C1C000AAA311B3819FFF745FE002840F3EC82F5
:108C2C000444DEE22846FFF7DDFD80466869002833
:108C3C0005DB642290FBF2F102FB110008E000F26C
:108C4C006C7000F07FFE642290FBF2F303FB1200C9
:108C5C00B8F1000F06DA6A69654B9A42B8BF4FF05B
:108C6C00010806E005D06A69564B9A42B8BF4FF02E
:108C7C00FF386423404490FBF3F203FB12001844CA
:108C8C00F9E1504B696908919942ACBF002301236B
:108C9C0028460793FFF7A6FD08990029834604DBB5
:108CAC00642391FBF3F3133308E001F26C70089129
:108CBC0000F048FE0899642390FBF3F368690028E0
:108CCC0006DB4FF0640E90FBFEFC0EFB1C000DE06F
:108CDC0000F26C700991089300F034FE4FF0640EB2
:108CEC000999089B90FBFEFC0CFB1E00BBF1000FCE
:108CFC0008DA69693E4A91420ADA4FF0010BCDF865
:108D0C001CB005E004D02F4A9142B8BF4FF0FF3B96
:108D1C000BEB0002501C02D1013B632203E0642ADE
:108D2C0004BF01330022642000FB0323079A42B1E5
:108D3C002D228DF82820B8F1000F13D008F1FF3840
:108D4C0010E0BAF12B0F10D142F20F7293420CD9F2
:108D5C008DF828A0B8F1000FF0D112AA252102F845
:108D6C001F1D0AE00DF1290200E00AAA252111704D
:108D7C00BAF1000F01D1501C02E03021901C51704F
:108D8C001C490793FFF726FD079B0093ADE1144A9E
:108D9C001249AB686B2808BF0A46E4E6A9680C23A5
:108DAC0031B199420EBF0B4691FBF3F203FB121348
:108DBC000A4A0B49492808BF0A46D4E6EB690E4A11
:108DCC000133D0E694F8FFFF9BA20D00899E0D00A5
:108DDC008CA20D0093A20D009DA20D009FA20D0070
:108DEC00ADA20D00A3A20D00B2A20D00B6A20D0003
:108DFC0095F8FFFFBEA20D00C2A20D002B69013336
:108E0C003DE16B683BE1029B9C4280F0F5810A23BB
:108E1C00E5E1AB68039A0B2BCCBFA423A02313442E
:108E2C00D3F80480404600F0F1F9B24BD3F800E0DF
:108E3C00391942462044844200F0D381029B9C4263
:108E4C0080F0DA8199F80030502B04F1010413788A
:108E5C000AD10EEB030C9CF801C00CF0030CBCF116
:108E6C00010F08BF2033DBB201F8013B0132E2E70E
:108E7C006B680093A04AAB6839E12B6A002B17DBB7
:108E8C0000F0D8FB069B1BB900F0D6FB0123069320
:108E9C0000F0B4FD2B6A002BD4BF002301231C224D
:108EAC0002FB0300036AC3F1000800F0C4FB01E0FD
:108EBC004FF00008D5F814E07046BEF145024FEAB9
:108ECC00E07141F1FF33002A73F1000BC4EB060C87
:108EDC0007EB040A03DABEF1420241F1FF339108B9
:108EEC0041EA83719B10049105930EF1FF316423C9
:108EFC0091FBF3F1DDE90423521A63EBE1730EF2FB
:108F0C002B104FF4C87190FBF1F1521843EBE17345
:108F1C00AEF1460E40F26D1101FB0EFEE96912EB4B
:108F2C000E0243EBEE7352184FF0180E43EBE17345
:108F3C00A2FB0E010EFB0311AB684FF03C0EC018E8
:108F4C0041EBE371A0FB0E230EFB01336968521851
:108F5C0043EBE173A2FB0E010EFB03112B68674A76
:108F6C00C01841EBE371B0EB080061EBE871CDE99F
:108F7C00000161465046FCF7B5F9F8E52B687EE038
:108F8C00029B9C4280F03881092328E12B680193D5
:108F9C006B6800935A4AAB68311B38190DE6029B7B
:108FAC009C4280F02981AB69621C0BB9372300E02D
:108FBC0030333B55144614E1EB69AA6907339B1A0D
:108FCC00072293FBF2F35AE02846FFF70BFCAA6941
:108FDC000AB1531E00E0062300282FDCEA6901D1F8
:108FEC000A323BE09A1A6B6940F26B71002BB4BFEA
:108FFC0008466FF064001844810707D101464FF012
:10900C00640E90FBFEF00EFB101181B9002B40F2A8
:10901C006B71A8BF6FF0640119444FF4C87391FBD6
:10902C00F3F003FB1011B1FA81F1490900E00121C1
:10903C00521A052AB4BF3523342320E001231EE045
:10904C00029B9C4280F0D880AB693033C7E0AA69A0
:10905C000AB1531E00E00623EA690732D21A07232D
:10906C0092FBF3F30BE06869002803DA00F26C70F2
:10907C0000F068FC642390FBF3F202FB1303214A1B
:10908C0071E56B69204A934203F26C7B05DA2D2360
:10909C008DF82830CBF1000B08E0BAF12B0F0DD175
:1090AC0042F20F739B4511D98DF828A0B8F1000F2F
:1090BC0001D008F1FF380DF1290300E00AAB25229D
:1090CC001A70BAF1000F08D1581C09E0B8F1000F62
:1090DC00F4D125238DF828300AAB3022981C5A7015
:1090EC000A49FFF777FBCDF800B043460AAA311BBB
:1090FC0038193EE004E10320D1A20D00C7A20D00F7
:10910C00CCA20D00ADA20D0094F8FFFFBEA20D0085
:10911C002B6A002B65DB00F08DFA069B1BB900F067
:10912C008BFA0123069300F069FC2B6A002BD4BF49
:10913C00002301231C2202FB030007EB040A036A31
:10914C00C3F1000800F077FA3C2398FBF3F0079387
:10915C0000F058FC079B90FBF3F2C4EB060B02FBF0
:10916C001300284A0090594650464FF4616398FB0F
:10917C00F3F3FCF7B7F8FAE40444A64231D83BE029
:10918C002B6A002B2DDB00F055FA069B1BB900F067
:10919C0053FA012306932B6A1B4A002BD4BF0023DE
:1091AC00012352F82380404600F030F808F1FF38D4
:1091BC003B19204484420BD0029A944205D218F8F1
:1091CC00012F03F8012B0134F4E700F034FA13E01B
:1091DC0000F031FA05E0029B9C420DD225233B5551
:1091EC00013499F800301BB109F10109FFF769BB93
:1091FC0026B100233B5501E0002000E0204613B0CF
:10920C00BDE8F08FDBA20D006CE10320034613F8E0
:10921C00012B002AFBD1181A0138704730B582B1E6
:10922C00451E013915F8013F11F8014FA34206D133
:10923C00EC431444E04201D0002BF3D11C46181B24
:10924C0030BD104630BD10B5034642B111F8014B8C
:10925C0003F8014B013A002CF7D11A4400E010BD81
:10926C00934202D003F8014BFAE710BD38B5034620
:10927C000D4641B1002429461846FFF789FA30B152
:10928C00431C0446F7E7BDE83840FFF781BA204697
:10929C0038BD00002DE9F04780464048D0F80090DA
:1092AC000F463D4615F8014B09EB0400407800F0E1
:1092BC00080000F0FF0608B12F46F2E72D2C03D171
:1092CC00BD1C7C78012603E02B2C04BF7C78BD1CD4
:1092DC0013B1102B0AD15BE0302C57D1287800F059
:1092EC00DF0058284DD16C7810230235002E14BFA6
:1092FC004FF0004C6FF0004C0027BCFBF3FA3846E3
:10930C0003FB1ACC09EB040E9EF801E01EF0040FCF
:10931C0001D0303C0BE01EF0030E1BD0BEF1010F50
:10932C000CBF4FF0370E4FF0570ECEEB0404A34298
:10933C0010DDB7F1FF3F0AD0504506D801D1644586
:10934C0003DC03FB0040012701E04FF0FF3715F869
:10935C00014BD7E77B1C0CD1002E4FF0220314BF1E
:10936C004FF000406FF00040C8F800302AB9BDE85B
:10937C00F08706B1404272B107B1691E1160BDE8B9
:10938C00F0873024002BB1D10823AFE70A23ADE7D7
:10939C00302CA3D0AAE7BDE8F08700BF04E103207E
:1093AC0013460A46014602480068FFF773BF00BF28
:1093BC0068E103202DE9F04780463C48D0F8009046
:1093CC000E46354615F8014B09EB0400407800F0C9
:1093DC00080000F0FF0708B12E46F2E72D2C03D150
:1093EC00B51C7478012703E02B2C04BF7478B51CD2
:1093FC0013B1102B0AD153E0302C4FD1287800F048
:10940C00DF00582845D16C78102302354FF0FF3C13
:10941C000026BCFBF3FC03FB0CFA6FEA0A0A30468D
:10942C0009EB040E9EF801E01EF0040F01D0303C55
:10943C000BE01EF0030E1AD0BEF1010F0CBF4FF063
:10944C00370E4FF0570ECEEB0404A3420FDD002E67
:10945C0008DB604506D801D1544503DC03FB004012
:10946C00012601E04FF0FF3615F8014BD8E7002E2E
:10947C0007DA2223C8F800304FF0FF302AB9BDE8D4
:10948C00F08707B1404272B106B1691E1160BDE8A8
:10949C00F0873024002BB9D10823B7E70A23B5E7AE
:1094AC00302CABD0B2E7BDE8F08700BF04E103205D
:1094BC0013460A46014602480068FFF77BBF00BF0F
:1094CC0068E10320044B054A1868054B002814BFBB
:1094DC0010461846704700BFC8E60320CCE60320B0
:1094EC0018A40D002DE9F74F044600F087FA40F25E
:1094FC00B1739C4240F396806FF4F663E318A4F2C8
:10950C00B2729B1040F26D1505FB0235A4F26D7220
:10951C006FF0630392FBF3F36FF4C8622B44A5184E
:10952C004FF4C87295FBF2F51D44642394FBF2F7DB
:10953C0094FBF3F602FB174703FB164600F13803C6
:10954C00B7FA87FE019304F0030344604FEA5E1EF2
:10955C00014600934FF0070C0B7A4A2B0ED14B6946
:10956C00009AEC1802B906B927B93B2BD4BF0023DB
:10957C00012300E000232344013B3FE0442B02D1B4
:10958C004B692B443AE0009B2BB9002E0CBFF046E4
:10959C004FF0010800E0F046244BCC68302202FB6F
:1095AC000838A8F1040AA9460123A34204DA5AF8A0
:1095BC0004BF0133D944F8E709F1040393FBFCFB26
:1095CC00CBEBCB0A012CCAEB030A4B69B8BF0124C5
:1095DC0004F18044B3EB0A0A0B6904F1FF3403F184
:1095EC00FF3348BF0AF1070AC3EBC30358F8244002
:1095FC005344A34201DB073BFBE74B448C690C4A09
:10960C0002FB03430C6A234441F81C3F019B994223
:10961C00A2D1C369826B9342ACBF002301230360C8
:10962C00012000E0002003B0BDE8F08F2CA20D005B
:10963C008051010070477047014B186800F002B868
:10964C0068E103202DE9F04F8DB0074600F0D6F904
:10965C00B049B14E0446384600F0C8F9054660B929
:10966C00AE4BAF4A1860AF4B1860AF4B30681A6006
:10967C005A60FBF70FFE356048E1316879B9306804
:10968C00FBF708FE2846FFF7C1FD411C3846FBF7E7
:10969C0039FE306048B12946FFF79CF805E0FFF72A
:1096AC008FF8002800F03281E9E72B789F4AA04917
:1096BC003A2B08BF01350AAE33462846FBF702FEAB
:1096CC00002840F323810A9BEF18EB5C2D2B03D170
:1096DC0001374FF0FF3503E02B2B08BF0137012575
:1096EC000DF1200A0DF11E0B4FF000080396CDF87A
:1096FC0008A00196CDF800B0334607AA8D49ADF805
:10970C001E803846ADF82080FBF7DCFD404540F369
:10971C00FD80BDF81E20BDF82030DFF824923C21DE
:10972C0001FB0233BDF81C204FF4616101FB0233D5
:10973C005D4325627C4D7D4B2B600A9B7C491F440D
:10974C004A4633463846FBF7BDFD404508DC2B68DE
:10975C006B60724B226A1A60724BC3F80080D5E0C2
:10976C000A9BC5F80490FD18FB5C2D2B03D1013529
:10977C004FF0FF3703E02B2B08BF013501270023E7
:10978C00ADF81C30ADF81E30ADF820300A930396BE
:10979C00CDF808A00196CDF800B0334607AA65496C
:1097AC002846FBF78FFD002804DC236AA3F56163D0
:1097BC00E3630EE0BDF81E20BDF820303C2101FB18
:1097CC000233BDF81C204FF4616101FB02335F438F
:1097DC00E7630A9B27461D444FF000092B782C2B7E
:1097EC0008BF013595F80080B8F14D0F26D10DF169
:1097FC002603029309AB00930396019633460DF1B1
:10980C0022024D492846FBF75DFD03287ED1BDF8A9
:10981C0022104B1E0B2B79D8BDF82420531E042B81
:10982C0074D8BDF82630062B70D887F80880F960FC
:10983C003A617B610A9B05EB03082AE0B8F14A0FF9
:10984C0006BF0135434644230A220BA9284605933B
:10985C00FFF72EFEDDF82C80ADF826004545059B64
:10986C0014D14D23B9F1000F07D123720323E36008
:10987C0002232361C4F814900BE084F824300B23EA
:10988C00A3620123E3620023236302E080B23B72F4
:10989C0078610223ADF81C300023ADF81E30ADF812
:1098AC0020300A9398F800302F2B0BD10396CDF86B
:1098BC0008A00196CDF800B0334607AA1F494046D0
:1098CC00FBF700FDBDF81E20BDF820303C2101FB4C
:1098DC000233BDF81C204FF4616101FB0233BB6104
:1098EC000A9D09F10109B9F1020F454407F11C0762
:1098FC007FF474AF6068FFF7F5FD084B226A1A60BD
:10990C00E36B9B1A074A18BF012313600DB0BDE827
:10991C00F08F00BF14A50D00E0E70320E8E703205B
:10992C0017A50D00E4E703206CE10320D3E7032027
:10993C001BA50D003EA50D002AA50D003DA50D0093
:10994C00C8E703200028B8BF40427047002910B573
:10995C0091FBF2F402FB141304DB002B07DA013445
:10996C009B1A04E0002BC4BF04F1FF349B18046065
:10997C00436010BD2DE9F84F07468B46904600F02A
:10998C0045F8194B1D689A463DB15C46234613F8C1
:10999C00012B42B13D2A1C46F8D1384600F037F86D
:1099AC000020BDE8F88FCBEB0404A94659F8040B52
:1099BC000028F2D022465946FFF730FC88B959F8F6
:1099CC00043C1E191B5D3D2B0BD1DAF80030ED1A4F
:1099DC00AD103846C8F8005000F019F8701CBDE8FE
:1099EC00F88F4D46E1E700BFB4E1032007B501AAAB
:1099FC00FFF7C0FF03B05DF804FB000000487047A0
:109A0C0074E103200028B8BF40427047704770478C
:109A1C001D400D0059400D0085400D0089400D0082
:109A2C00000000000000000000000000000000002A
:109A3C0000000000A1400D00C5400D00000000001A
:109A4C0000000000D1400D0005410D00D9660D004D
:109A5C00C7400D00000000000000000019410D007F
:109A6C002D410D00D9660D00C7400D00269B0D0041
:109A7C00579B0D005B9B0D00649B0D006C9B0D00B8
:109A8C00789B0D007E9B0D00269B0D002E9B0D00E0
:109A9C00329B0D003B9B0D00479B0D004F9B0D0017
:109AAC0043757272656E7420504D49432073657412
:109ABC0074696E67733A0056494E20566D696E3A5A
:109ACC002025750056494E20496D61783A20257540
